{
	"data": {
		"bytecode": {
			"linkReferences": {},
			"object": "608060405234801561000f575f5ffd5b5060408051602081019091525f81526100278161002d565b5061018f565b600261003982826100d5565b5050565b634e487b7160e01b5f52604160045260245ffd5b600181811c9082168061006557607f821691505b60208210810361008357634e487b7160e01b5f52602260045260245ffd5b50919050565b601f8211156100d057805f5260205f20601f840160051c810160208510156100ae5750805b601f840160051c820191505b818110156100cd575f81556001016100ba565b50505b505050565b81516001600160401b038111156100ee576100ee61003d565b610102816100fc8454610051565b84610089565b6020601f821160018114610134575f831561011d5750848201515b5f19600385901b1c1916600184901b1784556100cd565b5f84815260208120601f198516915b828110156101635787850151825560209485019460019092019101610143565b508482101561018057868401515f19600387901b60f8161c191681555b50505050600190811b01905550565b6130e18061019c5f395ff3fe608060405234801561000f575f5ffd5b506004361061011b575f3560e01c8063852c6ae2116100a9578063d42dc0c21161006e578063d42dc0c214610268578063d96ee75414610287578063dd34de671461029a578063e985e9c5146102b9578063f242432a146102cc575f5ffd5b8063852c6ae214610209578063856296f71461021c5780639e7212ad1461022f578063a22cb46514610242578063c49298ac14610255575f5ffd5b80630e89341c116100ef5780630e89341c146101905780632eb2c2d6146101b057806339dd7530146101c35780634e1273f4146101d657806372ce4275146101f6575f5ffd5b8062fdd58e1461011f57806301b7037c1461014557806301ffc9a71461015a5780630504c8141461017d575b5f5ffd5b61013261012d3660046126c6565b6102df565b6040519081526020015b60405180910390f35b610158610153366004612737565b610306565b005b61016d6101683660046127b0565b610619565b604051901515815260200161013c565b61013261018b3660046127cb565b610668565b6101a361019e3660046127eb565b610693565b60405161013c9190612830565b6101586101be36600461297d565b610725565b6101326101d13660046126c6565b61078c565b6101e96101e4366004612a2d565b61079e565b60405161013c9190612b2a565b610158610204366004612b3c565b610868565b610132610217366004612ba8565b610be7565b61013261022a366004612bda565b610bfb565b61015861023d366004612b3c565b610c07565b610158610250366004612c10565b610f5f565b610158610263366004612c47565b610f6e565b6101326102763660046127eb565b5f9081526003602052604090205490565b610158610295366004612ba8565b6111e0565b6101326102a83660046127eb565b60046020525f908152604090205481565b61016d6102c7366004612c8e565b611365565b6101586102da366004612cba565b611392565b5f818152602081815260408083206001600160a01b03861684529091529020545b92915050565b5f83815260046020526040902054806103745760405162461bcd60e51b815260206004820152602560248201527f726573756c7420666f7220636f6e646974696f6e206e6f74207265636569766560448201526419081e595d60da1b60648201526084015b60405180910390fd5b5f848152600360205260409020548061039f5760405162461bcd60e51b815260040161036b90612d11565b5f806103ae600180851b612d5c565b90505f5b858110156104ba575f8787838181106103cd576103cd612d6f565b9050602002013590505f811180156103e457508281105b6104005760405162461bcd60e51b815260040161036b90612d83565b5f6104158c6104108d8d866113f1565b6116e6565b90505f805b8781101561046b576001811b841615610463575f8c815260036020526040902080548290811061044c5761044c612d6f565b905f5260205f200154826104609190612db2565b91505b60010161041a565b505f61047733846102df565b905080156104aa576104898983612dd9565b6104939082612dd9565b61049d9088612db2565b96506104aa33848361172d565b5050600190920191506103b29050565b5081156105bc57876105995760405163a9059cbb60e01b8152336004820152602481018390526001600160a01b038a169063a9059cbb906044016020604051808303815f875af1158015610510573d5f5f3e3d5ffd5b505050506040513d601f19601f820116820180604052508101906105349190612dec565b6105945760405162461bcd60e51b815260206004820152602b60248201527f636f756c64206e6f74207472616e73666572207061796f757420746f206d657360448201526a39b0b3b29039b2b73232b960a91b606482015260840161036b565b6105bc565b6105bc336105a78b8b6116e6565b8460405180602001604052805f81525061179a565b87896001600160a01b0316336001600160a01b03167f2682012a4a4f1973119f1c9b90745d1bd91fa2bab387344f044cb3586864d18d8a8a8a886040516106069493929190612e37565b60405180910390a4505050505050505050565b5f6001600160e01b03198216636cdb3d1360e11b148061064957506001600160e01b031982166303a24d0760e21b145b8061030057506301ffc9a760e01b6001600160e01b0319831614610300565b6003602052815f5260405f208181548110610681575f80fd5b905f5260205f20015f91509150505481565b6060600280546106a290612e61565b80601f01602080910402602001604051908101604052809291908181526020018280546106ce90612e61565b80156107195780601f106106f057610100808354040283529160200191610719565b820191905f5260205f20905b8154815290600101906020018083116106fc57829003601f168201915b50505050509050919050565b336001600160a01b038616811480159061074657506107448682611365565b155b156107775760405163711bec9160e11b81526001600160a01b0380831660048301528716602482015260440161036b565b61078486868686866117f5565b505050505050565b5f61079783836116e6565b9392505050565b606081518351146107cf5781518351604051635b05999160e01b81526004810192909252602482015260440161036b565b5f83516001600160401b038111156107e9576107e9612842565b604051908082528060200260200182016040528015610812578160200160208202803683370190505b5090505f5b84518110156108605760208082028601015161083b906020808402870101516102df565b82828151811061084d5761084d612d6f565b6020908102919091010152600101610817565b509392505050565b600182116108b85760405162461bcd60e51b815260206004820181905260248201527f676f7420656d707479206f722073696e676c65746f6e20706172746974696f6e604482015260640161036b565b5f84815260036020526040902054806108e35760405162461bcd60e51b815260040161036b90612d11565b5f6108f1600180841b612d5c565b9050805f856001600160401b0381111561090d5761090d612842565b604051908082528060200260200182016040528015610936578160200160208202803683370190505b5090505f866001600160401b0381111561095257610952612842565b60405190808252806020026020018201604052801561097b578160200160208202803683370190505b5090505f5b87811015610a70575f89898381811061099b5761099b612d6f565b9050602002013590505f811180156109b257508581105b6109ce5760405162461bcd60e51b815260040161036b90612d83565b8085821614610a185760405162461bcd60e51b81526020600482015260166024820152751c185c9d1a5d1a5bdb881b9bdd08191a5cda9bda5b9d60521b604482015260640161036b565b93841893610a2b8d6104108e8e856113f1565b848381518110610a3d57610a3d612d6f565b60200260200101818152505087838381518110610a5c57610a5c612d6f565b602090810291909101015250600101610980565b50825f03610b625789610b4e576040516323b872dd60e01b8152336004820152306024820152604481018790526001600160a01b038c16906323b872dd906064016020604051808303815f875af1158015610acd573d5f5f3e3d5ffd5b505050506040513d601f19601f82011682018060405250810190610af19190612dec565b610b495760405162461bcd60e51b815260206004820152602360248201527f636f756c64206e6f74207265636569766520636f6c6c61746572616c20746f6b604482015262656e7360e81b606482015260840161036b565b610b77565b610b4933610b5c8d8d6116e6565b8861172d565b610b7733610b5c8d6104108e8e898b186113f1565b610b9133838360405180602001604052805f815250611853565b888a336001600160a01b03167f2e6bb91f8cbcda0c93623c54d0403a43514fabc40084ec96b6d5379a747862988e8c8c8c604051610bd29493929190612e99565b60405180910390a45050505050505050505050565b5f610bf384848461188f565b949350505050565b5f610bf38484846113f1565b60018211610c575760405162461bcd60e51b815260206004820181905260248201527f676f7420656d707479206f722073696e676c65746f6e20706172746974696f6e604482015260640161036b565b5f8481526003602052604090205480610c825760405162461bcd60e51b815260040161036b90612d11565b5f610c90600180841b612d5c565b9050805f856001600160401b03811115610cac57610cac612842565b604051908082528060200260200182016040528015610cd5578160200160208202803683370190505b5090505f866001600160401b03811115610cf157610cf1612842565b604051908082528060200260200182016040528015610d1a578160200160208202803683370190505b5090505f5b87811015610e0f575f898983818110610d3a57610d3a612d6f565b9050602002013590505f81118015610d5157508581105b610d6d5760405162461bcd60e51b815260040161036b90612d83565b8085821614610db75760405162461bcd60e51b81526020600482015260166024820152751c185c9d1a5d1a5bdb881b9bdd08191a5cda9bda5b9d60521b604482015260640161036b565b93841893610dca8d6104108e8e856113f1565b848381518110610ddc57610ddc612d6f565b60200260200101818152505087838381518110610dfb57610dfb612d6f565b602090810291909101015250600101610d1f565b50610e1b3383836118dd565b825f03610f095789610ee65760405163a9059cbb60e01b8152336004820152602481018790526001600160a01b038c169063a9059cbb906044016020604051808303815f875af1158015610e71573d5f5f3e3d5ffd5b505050506040513d601f19601f82011682018060405250810190610e959190612dec565b610ee15760405162461bcd60e51b815260206004820181905260248201527f636f756c64206e6f742073656e6420636f6c6c61746572616c20746f6b656e73604482015260640161036b565b610f1e565b610ee133610ef48d8d6116e6565b8860405180602001604052805f81525061179a565b610f1e33610ef48d6104108e8e898b186113f1565b888a336001600160a01b03167f6f13ca62553fcc2bcd2372180a43949c1e4cebba603901ede2f4e14f36b282ca8e8c8c8c604051610bd29493929190612e99565b610f6a338383611925565b5050565b8060018111610f8f5760405162461bcd60e51b815260040161036b90612ebd565b5f610f9b33868461188f565b5f818152600360205260409020549091508214610ffa5760405162461bcd60e51b815260206004820152601f60248201527f636f6e646974696f6e206e6f74207072657061726564206f7220666f756e6400604482015260640161036b565b5f81815260046020526040902054156110555760405162461bcd60e51b815260206004820152601e60248201527f7061796f75742064656e6f6d696e61746f7220616c7265616479207365740000604482015260640161036b565b5f805b83811015611138575f86868381811061107357611073612d6f565b90506020020135905080836110889190612db2565b5f858152600360205260409020805491945090839081106110ab576110ab612d6f565b905f5260205f2001545f146111025760405162461bcd60e51b815260206004820152601c60248201527f7061796f7574206e756d657261746f7220616c72656164792073657400000000604482015260640161036b565b5f84815260036020526040902080548291908490811061112457611124612d6f565b5f9182526020909120015550600101611058565b505f811161117f5760405162461bcd60e51b81526020600482015260146024820152737061796f757420697320616c6c207a65726f657360601b604482015260640161036b565b5f82815260046020908152604080832084905560039091529081902090518791339185917fb44d84d3289691f71497564b85d4233648d9dbae8cbdbb4329f301c3a0185894916111d0918991612f07565b60405180910390a4505050505050565b61010081111561122b5760405162461bcd60e51b8152602060048201526016602482015275746f6f206d616e79206f7574636f6d6520736c6f747360501b604482015260640161036b565b6001811161124b5760405162461bcd60e51b815260040161036b90612ebd565b5f61125784848461188f565b5f81815260036020526040902054909150156112b55760405162461bcd60e51b815260206004820152601a60248201527f636f6e646974696f6e20616c7265616479207072657061726564000000000000604482015260640161036b565b816001600160401b038111156112cd576112cd612842565b6040519080825280602002602001820160405280156112f6578160200160208202803683370190505b505f82815260036020908152604090912082516113199391929190910190612652565b5082846001600160a01b0316827fab3760c3bd2bb38b5bcf54dc79802ed67338b4cf29f3054ded67ed24661e41778560405161135791815260200190565b60405180910390a450505050565b6001600160a01b039182165f90815260016020908152604080832093909416825291909152205460ff1690565b336001600160a01b03861681148015906113b357506113b18682611365565b155b156113e45760405163711bec9160e11b81526001600160a01b0380831660048301528716602482015260440161036b565b61078486868686866119b9565b5f5f838360405160200161140f929190918252602082015260400190565b60408051601f198184030181529190528051602090910120905060ff81901c15155f805b5f51602061308c5f395f51905f526001850893505f51602061308c5f395f51905f5260035f51602061308c5f395f51905f5280878809870908905061147781611a45565b9150805f51602061308c5f395f51905f5283840903611433578280156114a557506114a3600283612f57565b155b806114c35750821580156114c357506114bf600283612f57565b6001145b156114e2576114df825f51602061308c5f395f51905f52612d5c565b91505b8780156116bd5760fe81901c151593506001600160fe1b03165f51602061308c5f395f51905f5260035f51602061308c5f395f51905f528084850984090891505f61152c83611a45565b90508480156115435750611541600282612f57565b155b80611561575084158015611561575061155d600282612f57565b6001145b156115805761157d815f51602061308c5f395f51905f52612d5c565b90505b825f51602061308c5f395f51905f52828309146115df5760405162461bcd60e51b815260206004820152601c60248201527f696e76616c696420706172656e7420636f6c6c656374696f6e20494400000000604482015260640161036b565b604080516020810188905290810185905260608101839052608081018290525f90819060069060a00160408051601f198184030181529082905261162291612f6a565b5f60405180830381855afa9150503d805f811461165a576040519150601f19603f3d011682016040523d82523d5f602084013e61165f565b606091505b5091509150816116a05760405162461bcd60e51b815260206004820152600c60248201526b1958d859190819985a5b195960a21b604482015260640161036b565b808060200190518101906116b49190612f80565b90985095505050505b6116c8600284612f57565b6001036116d957600160fe1b851894505b5092979650505050505050565b6040516bffffffffffffffffffffffff19606084901b166020820152603481018290525f9060540160408051601f1981840301815291905280516020909101209392505050565b6001600160a01b03831661175557604051626a0d4560e21b81525f600482015260240161036b565b604080516001808252602082018590528183019081526060820184905260a082019092525f60808201818152919291611793918791859085906121e8565b5050505050565b6001600160a01b0384166117c357604051632bfa23e760e11b81525f600482015260240161036b565b604080516001808252602082018690528183019081526060820185905260808201909252906107845f878484876121e8565b6001600160a01b03841661181e57604051632bfa23e760e11b81525f600482015260240161036b565b6001600160a01b03851661184657604051626a0d4560e21b81525f600482015260240161036b565b61179385858585856121e8565b6001600160a01b03841661187c57604051632bfa23e760e11b81525f600482015260240161036b565b6118895f858585856121e8565b50505050565b6040516bffffffffffffffffffffffff19606085901b16602082015260348101839052605481018290525f906074016040516020818303038152906040528051906020012090509392505050565b6001600160a01b03831661190557604051626a0d4560e21b81525f600482015260240161036b565b611920835f848460405180602001604052805f8152506121e8565b505050565b6001600160a01b03821661194d5760405162ced3e160e81b81525f600482015260240161036b565b6001600160a01b038381165f81815260016020908152604080832094871680845294825291829020805460ff191686151590811790915591519182527f17307eab39ab6107e8899845ad3d59bd9653f200f220920489ca2b5937696c31910160405180910390a3505050565b6001600160a01b0384166119e257604051632bfa23e760e11b81525f600482015260240161036b565b6001600160a01b038516611a0a57604051626a0d4560e21b81525f600482015260240161036b565b60408051600180825260208201869052818301908152606082018590526080820190925290611a3c87878484876121e8565b50505050505050565b5f5f51602061308c5f395f51905f52808380099150808283098181820990508181840992508183850993508184840992508183840990508181820982818309905082818209905082818209905082818309915082828609945082858609915082828309915082828509935082848509915082828309915082828309915082828509915082828609945082858609915082828309915082828309915082828609915082828509935082848609945082858609915082828309915082828509935082848509915082828309905082818209905082818209905082818309915082828609945082858509935082848509915082828309915082828309915082828609945082858609915082828309915082828609915082828309915082828309915082828609915082828509935082848509915082828309905082818209905082818309905082818509905082818209905082818209905082818209905082818209905082818309915082828609945082858609915082828609915082828509935082848509915082828509915082828309915082828309905082818309905082818209838182099050838182099050838182099050838182099050838183099150508281830991508282860994508285850993508284850991508282860994508285850993508284860994508285850993508284860994508285860991508282860991508282830991508282850993508284850991508282830991508282860994508285850993508284850991508282850991508282860994508285850993508284860994508285850993508284850991508282830991508282850991508282860994508285860991508282860991508282850993508284860994508285850993508284860994508285850993508284850991508282850991508282830991508282860994508285850993508284850991508282850991508282830991508282860994508285860991508282830990508281820990508281830990508281860990508281820990508281820990508281820990508281820990508281830991508282850993508284860994508285850993508284860994508285860991508282860991508282830991508282830991508282830991508282860991508282850993508284850991508282850991508282830991508282860994508285860991508282860991508282850993508284860994508285860991508282830991508282850993508284860994508285860991508282850993508284860994508285850993508284850991508282850991508282860994508285850993508284850991508282850991508282830991508282830991508282860994508285860991508282830991508282830991508282860991508282850993508284860994508285860991508282860990508281820990508281820990508281830991508282850993508284850991508282860994508285850993508284860994508285850993508284860994508285850993508284850991508282850990508281850991508282830991508282830991508282820991505081818509935081848409925081838509935081848409925081838509935081848509905081818509905081818409925050808284099250808384099250808384099250808384099250808384099250808384099250808384099250808384099250808384099250808384099250808384099250808384099250808384099250808384099250808384099250808384099250808384099250808384099250808384099250808384099250808384099250808384099250808384099250808384099250808384099250808384099250808384099250808384099250808384099250808384099250808384099250808384099250808384099250808384099250808384099250808384099250808384099250808384099250808384099250808384099250808384099250808384099250808384099250808384099250808384099250808384099250808384099250808384099250808384099250808384099250808384099250808384099250808384099250808384099250808384099250808384099250808384099250808384099250808384099250808384099250808384099250808384099250808384099250808384099250808384099250808384099250808384099250808384099250808384099250808384099250808384099250808384099250808384099250808384099250808384099250808384099250808384099250808384099250808384099250808384099250808384099250808384099250808384099250808384099250808384099250808384099250808384099250808384099250808384099250808384099250808384099250808384099250808384099250808384099250808384099250808384099250808384099250808384099250808384099250808384099250808384099250808384099250808384099250808384099250808384099250808384099250808384099250808384099250808384099250808384099250808384099250808384099250808384099250808384099250808384099250808384099250808384099250808384099250808384099250808384099250808384099250808384099250808384099250808384099250808384099250808384099250808384099250808383099392505050565b6121f48585858561223b565b6001600160a01b03841615611793578251339060010361222d576020848101519084015161222683898985858961244a565b5050610784565b61078481878787878761256b565b805182511461226a5781518151604051635b05999160e01b81526004810192909252602482015260440161036b565b335f5b835181101561236c576020818102858101820151908501909101516001600160a01b0388161561231e575f828152602081815260408083206001600160a01b038c168452909152902054818110156122f8576040516303dee4c560e01b81526001600160a01b038a16600482015260248101829052604481018390526064810184905260840161036b565b5f838152602081815260408083206001600160a01b038d16845290915290209082900390555b6001600160a01b03871615612362575f828152602081815260408083206001600160a01b038b1684529091528120805483929061235c908490612db2565b90915550505b505060010161226d565b5082516001036123ec5760208301515f906020840151909150856001600160a01b0316876001600160a01b0316846001600160a01b03167fc3d58168c5ae7397731d063d5bbf3d657854427343f4c083240f7aacaa2d0f6285856040516123dd929190918252602082015260400190565b60405180910390a45050611793565b836001600160a01b0316856001600160a01b0316826001600160a01b03167f4a39dc06d4c0dbc64b70af90fd698a233a518aa5d07e595d983b8c0526c8f7fb868660405161243b929190612fa2565b60405180910390a45050505050565b6001600160a01b0384163b156107845760405163f23a6e6160e01b81526001600160a01b0385169063f23a6e619061248e9089908990889088908890600401612fcf565b6020604051808303815f875af19250505080156124c8575060408051601f3d908101601f191682019092526124c591810190613013565b60015b61252f573d8080156124f5576040519150601f19603f3d011682016040523d82523d5f602084013e6124fa565b606091505b5080515f0361252757604051632bfa23e760e11b81526001600160a01b038616600482015260240161036b565b805181602001fd5b6001600160e01b0319811663f23a6e6160e01b14611a3c57604051632bfa23e760e11b81526001600160a01b038616600482015260240161036b565b6001600160a01b0384163b156107845760405163bc197c8160e01b81526001600160a01b0385169063bc197c81906125af908990899088908890889060040161302e565b6020604051808303815f875af19250505080156125e9575060408051601f3d908101601f191682019092526125e691810190613013565b60015b612616573d8080156124f5576040519150601f19603f3d011682016040523d82523d5f602084013e6124fa565b6001600160e01b0319811663bc197c8160e01b14611a3c57604051632bfa23e760e11b81526001600160a01b038616600482015260240161036b565b828054828255905f5260205f2090810192821561268b579160200282015b8281111561268b578251825591602001919060010190612670565b5061269792915061269b565b5090565b5b80821115612697575f815560010161269c565b6001600160a01b03811681146126c3575f5ffd5b50565b5f5f604083850312156126d7575f5ffd5b82356126e2816126af565b946020939093013593505050565b5f5f83601f840112612700575f5ffd5b5081356001600160401b03811115612716575f5ffd5b6020830191508360208260051b8501011115612730575f5ffd5b9250929050565b5f5f5f5f5f6080868803121561274b575f5ffd5b8535612756816126af565b9450602086013593506040860135925060608601356001600160401b0381111561277e575f5ffd5b61278a888289016126f0565b969995985093965092949392505050565b6001600160e01b0319811681146126c3575f5ffd5b5f602082840312156127c0575f5ffd5b81356107978161279b565b5f5f604083850312156127dc575f5ffd5b50508035926020909101359150565b5f602082840312156127fb575f5ffd5b5035919050565b5f81518084528060208401602086015e5f602082860101526020601f19601f83011685010191505092915050565b602081525f6107976020830184612802565b634e487b7160e01b5f52604160045260245ffd5b604051601f8201601f191681016001600160401b038111828210171561287e5761287e612842565b604052919050565b5f6001600160401b0382111561289e5761289e612842565b5060051b60200190565b5f82601f8301126128b7575f5ffd5b81356128ca6128c582612886565b612856565b8082825260208201915060208360051b8601019250858311156128eb575f5ffd5b602085015b838110156129085780358352602092830192016128f0565b5095945050505050565b5f82601f830112612921575f5ffd5b81356001600160401b0381111561293a5761293a612842565b61294d601f8201601f1916602001612856565b818152846020838601011115612961575f5ffd5b816020850160208301375f918101602001919091529392505050565b5f5f5f5f5f60a08688031215612991575f5ffd5b853561299c816126af565b945060208601356129ac816126af565b935060408601356001600160401b038111156129c6575f5ffd5b6129d2888289016128a8565b93505060608601356001600160401b038111156129ed575f5ffd5b6129f9888289016128a8565b92505060808601356001600160401b03811115612a14575f5ffd5b612a2088828901612912565b9150509295509295909350565b5f5f60408385031215612a3e575f5ffd5b82356001600160401b03811115612a53575f5ffd5b8301601f81018513612a63575f5ffd5b8035612a716128c582612886565b8082825260208201915060208360051b850101925087831115612a92575f5ffd5b6020840193505b82841015612abd578335612aac816126af565b825260209384019390910190612a99565b945050505060208301356001600160401b03811115612ada575f5ffd5b612ae6858286016128a8565b9150509250929050565b5f8151808452602084019350602083015f5b82811015612b20578151865260209586019590910190600101612b02565b5093949350505050565b602081525f6107976020830184612af0565b5f5f5f5f5f5f60a08789031215612b51575f5ffd5b8635612b5c816126af565b9550602087013594506040870135935060608701356001600160401b03811115612b84575f5ffd5b612b9089828a016126f0565b979a9699509497949695608090950135949350505050565b5f5f5f60608486031215612bba575f5ffd5b8335612bc5816126af565b95602085013595506040909401359392505050565b5f5f5f60608486031215612bec575f5ffd5b505081359360208301359350604090920135919050565b80151581146126c3575f5ffd5b5f5f60408385031215612c21575f5ffd5b8235612c2c816126af565b91506020830135612c3c81612c03565b809150509250929050565b5f5f5f60408486031215612c59575f5ffd5b8335925060208401356001600160401b03811115612c75575f5ffd5b612c81868287016126f0565b9497909650939450505050565b5f5f60408385031215612c9f575f5ffd5b8235612caa816126af565b91506020830135612c3c816126af565b5f5f5f5f5f60a08688031215612cce575f5ffd5b8535612cd9816126af565b94506020860135612ce9816126af565b9350604086013592506060860135915060808601356001600160401b03811115612a14575f5ffd5b6020808252601a908201527f636f6e646974696f6e206e6f7420707265706172656420796574000000000000604082015260600190565b634e487b7160e01b5f52601160045260245ffd5b8181038181111561030057610300612d48565b634e487b7160e01b5f52603260045260245ffd5b60208082526015908201527419dbdd081a5b9d985b1a59081a5b99195e081cd95d605a1b604082015260600190565b8082018082111561030057610300612d48565b634e487b7160e01b5f52601260045260245ffd5b5f82612de757612de7612dc5565b500490565b5f60208284031215612dfc575f5ffd5b815161079781612c03565b8183525f6001600160fb1b03831115612e1e575f5ffd5b8260051b80836020870137939093016020019392505050565b848152606060208201525f612e50606083018587612e07565b905082604083015295945050505050565b600181811c90821680612e7557607f821691505b602082108103612e9357634e487b7160e01b5f52602260045260245ffd5b50919050565b6001600160a01b03851681526060602082018190525f90612e509083018587612e07565b6020808252602a908201527f74686572652073686f756c64206265206d6f7265207468616e206f6e65206f756040820152691d18dbdb59481cdb1bdd60b21b606082015260800190565b5f6040820184835260406020840152808454808352606085019150855f5260205f2092505f5b81811015612f4b578354835260019384019360209093019201612f2d565b50909695505050505050565b5f82612f6557612f65612dc5565b500690565b5f82518060208501845e5f920191825250919050565b5f5f60408385031215612f91575f5ffd5b505080516020909101519092909150565b604081525f612fb46040830185612af0565b8281036020840152612fc68185612af0565b95945050505050565b6001600160a01b03868116825285166020820152604081018490526060810183905260a0608082018190525f9061300890830184612802565b979650505050505050565b5f60208284031215613023575f5ffd5b81516107978161279b565b6001600160a01b0386811682528516602082015260a0604082018190525f9061305990830186612af0565b828103606084015261306b8186612af0565b9050828103608084015261307f8185612802565b9897505050505050505056fe30644e72e131a029b85045b68181585d97816a916871ca8d3c208c16d87cfd47a26469706673582212203380e7e8d9ac1ed0abb271c053c7bb735768cda8c339635aa7401d1214ee315e64736f6c634300081c0033",
			"opcodes": "PUSH1 0x80 PUSH1 0x40 MSTORE CALLVALUE DUP1 ISZERO PUSH2 0xF JUMPI PUSH0 PUSH0 REVERT JUMPDEST POP PUSH1 0x40 DUP1 MLOAD PUSH1 0x20 DUP2 ADD SWAP1 SWAP2 MSTORE PUSH0 DUP2 MSTORE PUSH2 0x27 DUP2 PUSH2 0x2D JUMP JUMPDEST POP PUSH2 0x18F JUMP JUMPDEST PUSH1 0x2 PUSH2 0x39 DUP3 DUP3 PUSH2 0xD5 JUMP JUMPDEST POP POP JUMP JUMPDEST PUSH4 0x4E487B71 PUSH1 0xE0 SHL PUSH0 MSTORE PUSH1 0x41 PUSH1 0x4 MSTORE PUSH1 0x24 PUSH0 REVERT JUMPDEST PUSH1 0x1 DUP2 DUP2 SHR SWAP1 DUP3 AND DUP1 PUSH2 0x65 JUMPI PUSH1 0x7F DUP3 AND SWAP2 POP JUMPDEST PUSH1 0x20 DUP3 LT DUP2 SUB PUSH2 0x83 JUMPI PUSH4 0x4E487B71 PUSH1 0xE0 SHL PUSH0 MSTORE PUSH1 0x22 PUSH1 0x4 MSTORE PUSH1 0x24 PUSH0 REVERT JUMPDEST POP SWAP2 SWAP1 POP JUMP JUMPDEST PUSH1 0x1F DUP3 GT ISZERO PUSH2 0xD0 JUMPI DUP1 PUSH0 MSTORE PUSH1 0x20 PUSH0 KECCAK256 PUSH1 0x1F DUP5 ADD PUSH1 0x5 SHR DUP2 ADD PUSH1 0x20 DUP6 LT ISZERO PUSH2 0xAE JUMPI POP DUP1 JUMPDEST PUSH1 0x1F DUP5 ADD PUSH1 0x5 SHR DUP3 ADD SWAP2 POP JUMPDEST DUP2 DUP2 LT ISZERO PUSH2 0xCD JUMPI PUSH0 DUP2 SSTORE PUSH1 0x1 ADD PUSH2 0xBA JUMP JUMPDEST POP POP JUMPDEST POP POP POP JUMP JUMPDEST DUP2 MLOAD PUSH1 0x1 PUSH1 0x1 PUSH1 0x40 SHL SUB DUP2 GT ISZERO PUSH2 0xEE JUMPI PUSH2 0xEE PUSH2 0x3D JUMP JUMPDEST PUSH2 0x102 DUP2 PUSH2 0xFC DUP5 SLOAD PUSH2 0x51 JUMP JUMPDEST DUP5 PUSH2 0x89 JUMP JUMPDEST PUSH1 0x20 PUSH1 0x1F DUP3 GT PUSH1 0x1 DUP2 EQ PUSH2 0x134 JUMPI PUSH0 DUP4 ISZERO PUSH2 0x11D JUMPI POP DUP5 DUP3 ADD MLOAD JUMPDEST PUSH0 NOT PUSH1 0x3 DUP6 SWAP1 SHL SHR NOT AND PUSH1 0x1 DUP5 SWAP1 SHL OR DUP5 SSTORE PUSH2 0xCD JUMP JUMPDEST PUSH0 DUP5 DUP2 MSTORE PUSH1 0x20 DUP2 KECCAK256 PUSH1 0x1F NOT DUP6 AND SWAP2 JUMPDEST DUP3 DUP2 LT ISZERO PUSH2 0x163 JUMPI DUP8 DUP6 ADD MLOAD DUP3 SSTORE PUSH1 0x20 SWAP5 DUP6 ADD SWAP5 PUSH1 0x1 SWAP1 SWAP3 ADD SWAP2 ADD PUSH2 0x143 JUMP JUMPDEST POP DUP5 DUP3 LT ISZERO PUSH2 0x180 JUMPI DUP7 DUP5 ADD MLOAD PUSH0 NOT PUSH1 0x3 DUP8 SWAP1 SHL PUSH1 0xF8 AND SHR NOT AND DUP2 SSTORE JUMPDEST POP POP POP POP PUSH1 0x1 SWAP1 DUP2 SHL ADD SWAP1 SSTORE POP JUMP JUMPDEST PUSH2 0x30E1 DUP1 PUSH2 0x19C PUSH0 CODECOPY PUSH0 RETURN INVALID PUSH1 0x80 PUSH1 0x40 MSTORE CALLVALUE DUP1 ISZERO PUSH2 0xF JUMPI PUSH0 PUSH0 REVERT JUMPDEST POP PUSH1 0x4 CALLDATASIZE LT PUSH2 0x11B JUMPI PUSH0 CALLDATALOAD PUSH1 0xE0 SHR DUP1 PUSH4 0x852C6AE2 GT PUSH2 0xA9 JUMPI DUP1 PUSH4 0xD42DC0C2 GT PUSH2 0x6E JUMPI DUP1 PUSH4 0xD42DC0C2 EQ PUSH2 0x268 JUMPI DUP1 PUSH4 0xD96EE754 EQ PUSH2 0x287 JUMPI DUP1 PUSH4 0xDD34DE67 EQ PUSH2 0x29A JUMPI DUP1 PUSH4 0xE985E9C5 EQ PUSH2 0x2B9 JUMPI DUP1 PUSH4 0xF242432A EQ PUSH2 0x2CC JUMPI PUSH0 PUSH0 REVERT JUMPDEST DUP1 PUSH4 0x852C6AE2 EQ PUSH2 0x209 JUMPI DUP1 PUSH4 0x856296F7 EQ PUSH2 0x21C JUMPI DUP1 PUSH4 0x9E7212AD EQ PUSH2 0x22F JUMPI DUP1 PUSH4 0xA22CB465 EQ PUSH2 0x242 JUMPI DUP1 PUSH4 0xC49298AC EQ PUSH2 0x255 JUMPI PUSH0 PUSH0 REVERT JUMPDEST DUP1 PUSH4 0xE89341C GT PUSH2 0xEF JUMPI DUP1 PUSH4 0xE89341C EQ PUSH2 0x190 JUMPI DUP1 PUSH4 0x2EB2C2D6 EQ PUSH2 0x1B0 JUMPI DUP1 PUSH4 0x39DD7530 EQ PUSH2 0x1C3 JUMPI DUP1 PUSH4 0x4E1273F4 EQ PUSH2 0x1D6 JUMPI DUP1 PUSH4 0x72CE4275 EQ PUSH2 0x1F6 JUMPI PUSH0 PUSH0 REVERT JUMPDEST DUP1 PUSH3 0xFDD58E EQ PUSH2 0x11F JUMPI DUP1 PUSH4 0x1B7037C EQ PUSH2 0x145 JUMPI DUP1 PUSH4 0x1FFC9A7 EQ PUSH2 0x15A JUMPI DUP1 PUSH4 0x504C814 EQ PUSH2 0x17D JUMPI JUMPDEST PUSH0 PUSH0 REVERT JUMPDEST PUSH2 0x132 PUSH2 0x12D CALLDATASIZE PUSH1 0x4 PUSH2 0x26C6 JUMP JUMPDEST PUSH2 0x2DF JUMP JUMPDEST PUSH1 0x40 MLOAD SWAP1 DUP2 MSTORE PUSH1 0x20 ADD JUMPDEST PUSH1 0x40 MLOAD DUP1 SWAP2 SUB SWAP1 RETURN JUMPDEST PUSH2 0x158 PUSH2 0x153 CALLDATASIZE PUSH1 0x4 PUSH2 0x2737 JUMP JUMPDEST PUSH2 0x306 JUMP JUMPDEST STOP JUMPDEST PUSH2 0x16D PUSH2 0x168 CALLDATASIZE PUSH1 0x4 PUSH2 0x27B0 JUMP JUMPDEST PUSH2 0x619 JUMP JUMPDEST PUSH1 0x40 MLOAD SWAP1 ISZERO ISZERO DUP2 MSTORE PUSH1 0x20 ADD PUSH2 0x13C JUMP JUMPDEST PUSH2 0x132 PUSH2 0x18B CALLDATASIZE PUSH1 0x4 PUSH2 0x27CB JUMP JUMPDEST PUSH2 0x668 JUMP JUMPDEST PUSH2 0x1A3 PUSH2 0x19E CALLDATASIZE PUSH1 0x4 PUSH2 0x27EB JUMP JUMPDEST PUSH2 0x693 JUMP JUMPDEST PUSH1 0x40 MLOAD PUSH2 0x13C SWAP2 SWAP1 PUSH2 0x2830 JUMP JUMPDEST PUSH2 0x158 PUSH2 0x1BE CALLDATASIZE PUSH1 0x4 PUSH2 0x297D JUMP JUMPDEST PUSH2 0x725 JUMP JUMPDEST PUSH2 0x132 PUSH2 0x1D1 CALLDATASIZE PUSH1 0x4 PUSH2 0x26C6 JUMP JUMPDEST PUSH2 0x78C JUMP JUMPDEST PUSH2 0x1E9 PUSH2 0x1E4 CALLDATASIZE PUSH1 0x4 PUSH2 0x2A2D JUMP JUMPDEST PUSH2 0x79E JUMP JUMPDEST PUSH1 0x40 MLOAD PUSH2 0x13C SWAP2 SWAP1 PUSH2 0x2B2A JUMP JUMPDEST PUSH2 0x158 PUSH2 0x204 CALLDATASIZE PUSH1 0x4 PUSH2 0x2B3C JUMP JUMPDEST PUSH2 0x868 JUMP JUMPDEST PUSH2 0x132 PUSH2 0x217 CALLDATASIZE PUSH1 0x4 PUSH2 0x2BA8 JUMP JUMPDEST PUSH2 0xBE7 JUMP JUMPDEST PUSH2 0x132 PUSH2 0x22A CALLDATASIZE PUSH1 0x4 PUSH2 0x2BDA JUMP JUMPDEST PUSH2 0xBFB JUMP JUMPDEST PUSH2 0x158 PUSH2 0x23D CALLDATASIZE PUSH1 0x4 PUSH2 0x2B3C JUMP JUMPDEST PUSH2 0xC07 JUMP JUMPDEST PUSH2 0x158 PUSH2 0x250 CALLDATASIZE PUSH1 0x4 PUSH2 0x2C10 JUMP JUMPDEST PUSH2 0xF5F JUMP JUMPDEST PUSH2 0x158 PUSH2 0x263 CALLDATASIZE PUSH1 0x4 PUSH2 0x2C47 JUMP JUMPDEST PUSH2 0xF6E JUMP JUMPDEST PUSH2 0x132 PUSH2 0x276 CALLDATASIZE PUSH1 0x4 PUSH2 0x27EB JUMP JUMPDEST PUSH0 SWAP1 DUP2 MSTORE PUSH1 0x3 PUSH1 0x20 MSTORE PUSH1 0x40 SWAP1 KECCAK256 SLOAD SWAP1 JUMP JUMPDEST PUSH2 0x158 PUSH2 0x295 CALLDATASIZE PUSH1 0x4 PUSH2 0x2BA8 JUMP JUMPDEST PUSH2 0x11E0 JUMP JUMPDEST PUSH2 0x132 PUSH2 0x2A8 CALLDATASIZE PUSH1 0x4 PUSH2 0x27EB JUMP JUMPDEST PUSH1 0x4 PUSH1 0x20 MSTORE PUSH0 SWAP1 DUP2 MSTORE PUSH1 0x40 SWAP1 KECCAK256 SLOAD DUP2 JUMP JUMPDEST PUSH2 0x16D PUSH2 0x2C7 CALLDATASIZE PUSH1 0x4 PUSH2 0x2C8E JUMP JUMPDEST PUSH2 0x1365 JUMP JUMPDEST PUSH2 0x158 PUSH2 0x2DA CALLDATASIZE PUSH1 0x4 PUSH2 0x2CBA JUMP JUMPDEST PUSH2 0x1392 JUMP JUMPDEST PUSH0 DUP2 DUP2 MSTORE PUSH1 0x20 DUP2 DUP2 MSTORE PUSH1 0x40 DUP1 DUP4 KECCAK256 PUSH1 0x1 PUSH1 0x1 PUSH1 0xA0 SHL SUB DUP7 AND DUP5 MSTORE SWAP1 SWAP2 MSTORE SWAP1 KECCAK256 SLOAD JUMPDEST SWAP3 SWAP2 POP POP JUMP JUMPDEST PUSH0 DUP4 DUP2 MSTORE PUSH1 0x4 PUSH1 0x20 MSTORE PUSH1 0x40 SWAP1 KECCAK256 SLOAD DUP1 PUSH2 0x374 JUMPI PUSH1 0x40 MLOAD PUSH3 0x461BCD PUSH1 0xE5 SHL DUP2 MSTORE PUSH1 0x20 PUSH1 0x4 DUP3 ADD MSTORE PUSH1 0x25 PUSH1 0x24 DUP3 ADD MSTORE PUSH32 0x726573756C7420666F7220636F6E646974696F6E206E6F742072656365697665 PUSH1 0x44 DUP3 ADD MSTORE PUSH5 0x19081E595D PUSH1 0xDA SHL PUSH1 0x64 DUP3 ADD MSTORE PUSH1 0x84 ADD JUMPDEST PUSH1 0x40 MLOAD DUP1 SWAP2 SUB SWAP1 REVERT JUMPDEST PUSH0 DUP5 DUP2 MSTORE PUSH1 0x3 PUSH1 0x20 MSTORE PUSH1 0x40 SWAP1 KECCAK256 SLOAD DUP1 PUSH2 0x39F JUMPI PUSH1 0x40 MLOAD PUSH3 0x461BCD PUSH1 0xE5 SHL DUP2 MSTORE PUSH1 0x4 ADD PUSH2 0x36B SWAP1 PUSH2 0x2D11 JUMP JUMPDEST PUSH0 DUP1 PUSH2 0x3AE PUSH1 0x1 DUP1 DUP6 SHL PUSH2 0x2D5C JUMP JUMPDEST SWAP1 POP PUSH0 JUMPDEST DUP6 DUP2 LT ISZERO PUSH2 0x4BA JUMPI PUSH0 DUP8 DUP8 DUP4 DUP2 DUP2 LT PUSH2 0x3CD JUMPI PUSH2 0x3CD PUSH2 0x2D6F JUMP JUMPDEST SWAP1 POP PUSH1 0x20 MUL ADD CALLDATALOAD SWAP1 POP PUSH0 DUP2 GT DUP1 ISZERO PUSH2 0x3E4 JUMPI POP DUP3 DUP2 LT JUMPDEST PUSH2 0x400 JUMPI PUSH1 0x40 MLOAD PUSH3 0x461BCD PUSH1 0xE5 SHL DUP2 MSTORE PUSH1 0x4 ADD PUSH2 0x36B SWAP1 PUSH2 0x2D83 JUMP JUMPDEST PUSH0 PUSH2 0x415 DUP13 PUSH2 0x410 DUP14 DUP14 DUP7 PUSH2 0x13F1 JUMP JUMPDEST PUSH2 0x16E6 JUMP JUMPDEST SWAP1 POP PUSH0 DUP1 JUMPDEST DUP8 DUP2 LT ISZERO PUSH2 0x46B JUMPI PUSH1 0x1 DUP2 SHL DUP5 AND ISZERO PUSH2 0x463 JUMPI PUSH0 DUP13 DUP2 MSTORE PUSH1 0x3 PUSH1 0x20 MSTORE PUSH1 0x40 SWAP1 KECCAK256 DUP1 SLOAD DUP3 SWAP1 DUP2 LT PUSH2 0x44C JUMPI PUSH2 0x44C PUSH2 0x2D6F JUMP JUMPDEST SWAP1 PUSH0 MSTORE PUSH1 0x20 PUSH0 KECCAK256 ADD SLOAD DUP3 PUSH2 0x460 SWAP2 SWAP1 PUSH2 0x2DB2 JUMP JUMPDEST SWAP2 POP JUMPDEST PUSH1 0x1 ADD PUSH2 0x41A JUMP JUMPDEST POP PUSH0 PUSH2 0x477 CALLER DUP5 PUSH2 0x2DF JUMP JUMPDEST SWAP1 POP DUP1 ISZERO PUSH2 0x4AA JUMPI PUSH2 0x489 DUP10 DUP4 PUSH2 0x2DD9 JUMP JUMPDEST PUSH2 0x493 SWAP1 DUP3 PUSH2 0x2DD9 JUMP JUMPDEST PUSH2 0x49D SWAP1 DUP9 PUSH2 0x2DB2 JUMP JUMPDEST SWAP7 POP PUSH2 0x4AA CALLER DUP5 DUP4 PUSH2 0x172D JUMP JUMPDEST POP POP PUSH1 0x1 SWAP1 SWAP3 ADD SWAP2 POP PUSH2 0x3B2 SWAP1 POP JUMP JUMPDEST POP DUP2 ISZERO PUSH2 0x5BC JUMPI DUP8 PUSH2 0x599 JUMPI PUSH1 0x40 MLOAD PUSH4 0xA9059CBB PUSH1 0xE0 SHL DUP2 MSTORE CALLER PUSH1 0x4 DUP3 ADD MSTORE PUSH1 0x24 DUP2 ADD DUP4 SWAP1 MSTORE PUSH1 0x1 PUSH1 0x1 PUSH1 0xA0 SHL SUB DUP11 AND SWAP1 PUSH4 0xA9059CBB SWAP1 PUSH1 0x44 ADD PUSH1 0x20 PUSH1 0x40 MLOAD DUP1 DUP4 SUB DUP2 PUSH0 DUP8 GAS CALL ISZERO DUP1 ISZERO PUSH2 0x510 JUMPI RETURNDATASIZE PUSH0 PUSH0 RETURNDATACOPY RETURNDATASIZE PUSH0 REVERT JUMPDEST POP POP POP POP PUSH1 0x40 MLOAD RETURNDATASIZE PUSH1 0x1F NOT PUSH1 0x1F DUP3 ADD AND DUP3 ADD DUP1 PUSH1 0x40 MSTORE POP DUP2 ADD SWAP1 PUSH2 0x534 SWAP2 SWAP1 PUSH2 0x2DEC JUMP JUMPDEST PUSH2 0x594 JUMPI PUSH1 0x40 MLOAD PUSH3 0x461BCD PUSH1 0xE5 SHL DUP2 MSTORE PUSH1 0x20 PUSH1 0x4 DUP3 ADD MSTORE PUSH1 0x2B PUSH1 0x24 DUP3 ADD MSTORE PUSH32 0x636F756C64206E6F74207472616E73666572207061796F757420746F206D6573 PUSH1 0x44 DUP3 ADD MSTORE PUSH11 0x39B0B3B29039B2B73232B9 PUSH1 0xA9 SHL PUSH1 0x64 DUP3 ADD MSTORE PUSH1 0x84 ADD PUSH2 0x36B JUMP JUMPDEST PUSH2 0x5BC JUMP JUMPDEST PUSH2 0x5BC CALLER PUSH2 0x5A7 DUP12 DUP12 PUSH2 0x16E6 JUMP JUMPDEST DUP5 PUSH1 0x40 MLOAD DUP1 PUSH1 0x20 ADD PUSH1 0x40 MSTORE DUP1 PUSH0 DUP2 MSTORE POP PUSH2 0x179A JUMP JUMPDEST DUP8 DUP10 PUSH1 0x1 PUSH1 0x1 PUSH1 0xA0 SHL SUB AND CALLER PUSH1 0x1 PUSH1 0x1 PUSH1 0xA0 SHL SUB AND PUSH32 0x2682012A4A4F1973119F1C9B90745D1BD91FA2BAB387344F044CB3586864D18D DUP11 DUP11 DUP11 DUP9 PUSH1 0x40 MLOAD PUSH2 0x606 SWAP5 SWAP4 SWAP3 SWAP2 SWAP1 PUSH2 0x2E37 JUMP JUMPDEST PUSH1 0x40 MLOAD DUP1 SWAP2 SUB SWAP1 LOG4 POP POP POP POP POP POP POP POP POP JUMP JUMPDEST PUSH0 PUSH1 0x1 PUSH1 0x1 PUSH1 0xE0 SHL SUB NOT DUP3 AND PUSH4 0x6CDB3D13 PUSH1 0xE1 SHL EQ DUP1 PUSH2 0x649 JUMPI POP PUSH1 0x1 PUSH1 0x1 PUSH1 0xE0 SHL SUB NOT DUP3 AND PUSH4 0x3A24D07 PUSH1 0xE2 SHL EQ JUMPDEST DUP1 PUSH2 0x300 JUMPI POP PUSH4 0x1FFC9A7 PUSH1 0xE0 SHL PUSH1 0x1 PUSH1 0x1 PUSH1 0xE0 SHL SUB NOT DUP4 AND EQ PUSH2 0x300 JUMP JUMPDEST PUSH1 0x3 PUSH1 0x20 MSTORE DUP2 PUSH0 MSTORE PUSH1 0x40 PUSH0 KECCAK256 DUP2 DUP2 SLOAD DUP2 LT PUSH2 0x681 JUMPI PUSH0 DUP1 REVERT JUMPDEST SWAP1 PUSH0 MSTORE PUSH1 0x20 PUSH0 KECCAK256 ADD PUSH0 SWAP2 POP SWAP2 POP POP SLOAD DUP2 JUMP JUMPDEST PUSH1 0x60 PUSH1 0x2 DUP1 SLOAD PUSH2 0x6A2 SWAP1 PUSH2 0x2E61 JUMP JUMPDEST DUP1 PUSH1 0x1F ADD PUSH1 0x20 DUP1 SWAP2 DIV MUL PUSH1 0x20 ADD PUSH1 0x40 MLOAD SWAP1 DUP2 ADD PUSH1 0x40 MSTORE DUP1 SWAP3 SWAP2 SWAP1 DUP2 DUP2 MSTORE PUSH1 0x20 ADD DUP3 DUP1 SLOAD PUSH2 0x6CE SWAP1 PUSH2 0x2E61 JUMP JUMPDEST DUP1 ISZERO PUSH2 0x719 JUMPI DUP1 PUSH1 0x1F LT PUSH2 0x6F0 JUMPI PUSH2 0x100 DUP1 DUP4 SLOAD DIV MUL DUP4 MSTORE SWAP2 PUSH1 0x20 ADD SWAP2 PUSH2 0x719 JUMP JUMPDEST DUP3 ADD SWAP2 SWAP1 PUSH0 MSTORE PUSH1 0x20 PUSH0 KECCAK256 SWAP1 JUMPDEST DUP2 SLOAD DUP2 MSTORE SWAP1 PUSH1 0x1 ADD SWAP1 PUSH1 0x20 ADD DUP1 DUP4 GT PUSH2 0x6FC JUMPI DUP3 SWAP1 SUB PUSH1 0x1F AND DUP3 ADD SWAP2 JUMPDEST POP POP POP POP POP SWAP1 POP SWAP2 SWAP1 POP JUMP JUMPDEST CALLER PUSH1 0x1 PUSH1 0x1 PUSH1 0xA0 SHL SUB DUP7 AND DUP2 EQ DUP1 ISZERO SWAP1 PUSH2 0x746 JUMPI POP PUSH2 0x744 DUP7 DUP3 PUSH2 0x1365 JUMP JUMPDEST ISZERO JUMPDEST ISZERO PUSH2 0x777 JUMPI PUSH1 0x40 MLOAD PUSH4 0x711BEC91 PUSH1 0xE1 SHL DUP2 MSTORE PUSH1 0x1 PUSH1 0x1 PUSH1 0xA0 SHL SUB DUP1 DUP4 AND PUSH1 0x4 DUP4 ADD MSTORE DUP8 AND PUSH1 0x24 DUP3 ADD MSTORE PUSH1 0x44 ADD PUSH2 0x36B JUMP JUMPDEST PUSH2 0x784 DUP7 DUP7 DUP7 DUP7 DUP7 PUSH2 0x17F5 JUMP JUMPDEST POP POP POP POP POP POP JUMP JUMPDEST PUSH0 PUSH2 0x797 DUP4 DUP4 PUSH2 0x16E6 JUMP JUMPDEST SWAP4 SWAP3 POP POP POP JUMP JUMPDEST PUSH1 0x60 DUP2 MLOAD DUP4 MLOAD EQ PUSH2 0x7CF JUMPI DUP2 MLOAD DUP4 MLOAD PUSH1 0x40 MLOAD PUSH4 0x5B059991 PUSH1 0xE0 SHL DUP2 MSTORE PUSH1 0x4 DUP2 ADD SWAP3 SWAP1 SWAP3 MSTORE PUSH1 0x24 DUP3 ADD MSTORE PUSH1 0x44 ADD PUSH2 0x36B JUMP JUMPDEST PUSH0 DUP4 MLOAD PUSH1 0x1 PUSH1 0x1 PUSH1 0x40 SHL SUB DUP2 GT ISZERO PUSH2 0x7E9 JUMPI PUSH2 0x7E9 PUSH2 0x2842 JUMP JUMPDEST PUSH1 0x40 MLOAD SWAP1 DUP1 DUP3 MSTORE DUP1 PUSH1 0x20 MUL PUSH1 0x20 ADD DUP3 ADD PUSH1 0x40 MSTORE DUP1 ISZERO PUSH2 0x812 JUMPI DUP2 PUSH1 0x20 ADD PUSH1 0x20 DUP3 MUL DUP1 CALLDATASIZE DUP4 CALLDATACOPY ADD SWAP1 POP JUMPDEST POP SWAP1 POP PUSH0 JUMPDEST DUP5 MLOAD DUP2 LT ISZERO PUSH2 0x860 JUMPI PUSH1 0x20 DUP1 DUP3 MUL DUP7 ADD ADD MLOAD PUSH2 0x83B SWAP1 PUSH1 0x20 DUP1 DUP5 MUL DUP8 ADD ADD MLOAD PUSH2 0x2DF JUMP JUMPDEST DUP3 DUP3 DUP2 MLOAD DUP2 LT PUSH2 0x84D JUMPI PUSH2 0x84D PUSH2 0x2D6F JUMP JUMPDEST PUSH1 0x20 SWAP1 DUP2 MUL SWAP2 SWAP1 SWAP2 ADD ADD MSTORE PUSH1 0x1 ADD PUSH2 0x817 JUMP JUMPDEST POP SWAP4 SWAP3 POP POP POP JUMP JUMPDEST PUSH1 0x1 DUP3 GT PUSH2 0x8B8 JUMPI PUSH1 0x40 MLOAD PUSH3 0x461BCD PUSH1 0xE5 SHL DUP2 MSTORE PUSH1 0x20 PUSH1 0x4 DUP3 ADD DUP2 SWAP1 MSTORE PUSH1 0x24 DUP3 ADD MSTORE PUSH32 0x676F7420656D707479206F722073696E676C65746F6E20706172746974696F6E PUSH1 0x44 DUP3 ADD MSTORE PUSH1 0x64 ADD PUSH2 0x36B JUMP JUMPDEST PUSH0 DUP5 DUP2 MSTORE PUSH1 0x3 PUSH1 0x20 MSTORE PUSH1 0x40 SWAP1 KECCAK256 SLOAD DUP1 PUSH2 0x8E3 JUMPI PUSH1 0x40 MLOAD PUSH3 0x461BCD PUSH1 0xE5 SHL DUP2 MSTORE PUSH1 0x4 ADD PUSH2 0x36B SWAP1 PUSH2 0x2D11 JUMP JUMPDEST PUSH0 PUSH2 0x8F1 PUSH1 0x1 DUP1 DUP5 SHL PUSH2 0x2D5C JUMP JUMPDEST SWAP1 POP DUP1 PUSH0 DUP6 PUSH1 0x1 PUSH1 0x1 PUSH1 0x40 SHL SUB DUP2 GT ISZERO PUSH2 0x90D JUMPI PUSH2 0x90D PUSH2 0x2842 JUMP JUMPDEST PUSH1 0x40 MLOAD SWAP1 DUP1 DUP3 MSTORE DUP1 PUSH1 0x20 MUL PUSH1 0x20 ADD DUP3 ADD PUSH1 0x40 MSTORE DUP1 ISZERO PUSH2 0x936 JUMPI DUP2 PUSH1 0x20 ADD PUSH1 0x20 DUP3 MUL DUP1 CALLDATASIZE DUP4 CALLDATACOPY ADD SWAP1 POP JUMPDEST POP SWAP1 POP PUSH0 DUP7 PUSH1 0x1 PUSH1 0x1 PUSH1 0x40 SHL SUB DUP2 GT ISZERO PUSH2 0x952 JUMPI PUSH2 0x952 PUSH2 0x2842 JUMP JUMPDEST PUSH1 0x40 MLOAD SWAP1 DUP1 DUP3 MSTORE DUP1 PUSH1 0x20 MUL PUSH1 0x20 ADD DUP3 ADD PUSH1 0x40 MSTORE DUP1 ISZERO PUSH2 0x97B JUMPI DUP2 PUSH1 0x20 ADD PUSH1 0x20 DUP3 MUL DUP1 CALLDATASIZE DUP4 CALLDATACOPY ADD SWAP1 POP JUMPDEST POP SWAP1 POP PUSH0 JUMPDEST DUP8 DUP2 LT ISZERO PUSH2 0xA70 JUMPI PUSH0 DUP10 DUP10 DUP4 DUP2 DUP2 LT PUSH2 0x99B JUMPI PUSH2 0x99B PUSH2 0x2D6F JUMP JUMPDEST SWAP1 POP PUSH1 0x20 MUL ADD CALLDATALOAD SWAP1 POP PUSH0 DUP2 GT DUP1 ISZERO PUSH2 0x9B2 JUMPI POP DUP6 DUP2 LT JUMPDEST PUSH2 0x9CE JUMPI PUSH1 0x40 MLOAD PUSH3 0x461BCD PUSH1 0xE5 SHL DUP2 MSTORE PUSH1 0x4 ADD PUSH2 0x36B SWAP1 PUSH2 0x2D83 JUMP JUMPDEST DUP1 DUP6 DUP3 AND EQ PUSH2 0xA18 JUMPI PUSH1 0x40 MLOAD PUSH3 0x461BCD PUSH1 0xE5 SHL DUP2 MSTORE PUSH1 0x20 PUSH1 0x4 DUP3 ADD MSTORE PUSH1 0x16 PUSH1 0x24 DUP3 ADD MSTORE PUSH22 0x1C185C9D1A5D1A5BDB881B9BDD08191A5CDA9BDA5B9D PUSH1 0x52 SHL PUSH1 0x44 DUP3 ADD MSTORE PUSH1 0x64 ADD PUSH2 0x36B JUMP JUMPDEST SWAP4 DUP5 XOR SWAP4 PUSH2 0xA2B DUP14 PUSH2 0x410 DUP15 DUP15 DUP6 PUSH2 0x13F1 JUMP JUMPDEST DUP5 DUP4 DUP2 MLOAD DUP2 LT PUSH2 0xA3D JUMPI PUSH2 0xA3D PUSH2 0x2D6F JUMP JUMPDEST PUSH1 0x20 MUL PUSH1 0x20 ADD ADD DUP2 DUP2 MSTORE POP POP DUP8 DUP4 DUP4 DUP2 MLOAD DUP2 LT PUSH2 0xA5C JUMPI PUSH2 0xA5C PUSH2 0x2D6F JUMP JUMPDEST PUSH1 0x20 SWAP1 DUP2 MUL SWAP2 SWAP1 SWAP2 ADD ADD MSTORE POP PUSH1 0x1 ADD PUSH2 0x980 JUMP JUMPDEST POP DUP3 PUSH0 SUB PUSH2 0xB62 JUMPI DUP10 PUSH2 0xB4E JUMPI PUSH1 0x40 MLOAD PUSH4 0x23B872DD PUSH1 0xE0 SHL DUP2 MSTORE CALLER PUSH1 0x4 DUP3 ADD MSTORE ADDRESS PUSH1 0x24 DUP3 ADD MSTORE PUSH1 0x44 DUP2 ADD DUP8 SWAP1 MSTORE PUSH1 0x1 PUSH1 0x1 PUSH1 0xA0 SHL SUB DUP13 AND SWAP1 PUSH4 0x23B872DD SWAP1 PUSH1 0x64 ADD PUSH1 0x20 PUSH1 0x40 MLOAD DUP1 DUP4 SUB DUP2 PUSH0 DUP8 GAS CALL ISZERO DUP1 ISZERO PUSH2 0xACD JUMPI RETURNDATASIZE PUSH0 PUSH0 RETURNDATACOPY RETURNDATASIZE PUSH0 REVERT JUMPDEST POP POP POP POP PUSH1 0x40 MLOAD RETURNDATASIZE PUSH1 0x1F NOT PUSH1 0x1F DUP3 ADD AND DUP3 ADD DUP1 PUSH1 0x40 MSTORE POP DUP2 ADD SWAP1 PUSH2 0xAF1 SWAP2 SWAP1 PUSH2 0x2DEC JUMP JUMPDEST PUSH2 0xB49 JUMPI PUSH1 0x40 MLOAD PUSH3 0x461BCD PUSH1 0xE5 SHL DUP2 MSTORE PUSH1 0x20 PUSH1 0x4 DUP3 ADD MSTORE PUSH1 0x23 PUSH1 0x24 DUP3 ADD MSTORE PUSH32 0x636F756C64206E6F74207265636569766520636F6C6C61746572616C20746F6B PUSH1 0x44 DUP3 ADD MSTORE PUSH3 0x656E73 PUSH1 0xE8 SHL PUSH1 0x64 DUP3 ADD MSTORE PUSH1 0x84 ADD PUSH2 0x36B JUMP JUMPDEST PUSH2 0xB77 JUMP JUMPDEST PUSH2 0xB49 CALLER PUSH2 0xB5C DUP14 DUP14 PUSH2 0x16E6 JUMP JUMPDEST DUP9 PUSH2 0x172D JUMP JUMPDEST PUSH2 0xB77 CALLER PUSH2 0xB5C DUP14 PUSH2 0x410 DUP15 DUP15 DUP10 DUP12 XOR PUSH2 0x13F1 JUMP JUMPDEST PUSH2 0xB91 CALLER DUP4 DUP4 PUSH1 0x40 MLOAD DUP1 PUSH1 0x20 ADD PUSH1 0x40 MSTORE DUP1 PUSH0 DUP2 MSTORE POP PUSH2 0x1853 JUMP JUMPDEST DUP9 DUP11 CALLER PUSH1 0x1 PUSH1 0x1 PUSH1 0xA0 SHL SUB AND PUSH32 0x2E6BB91F8CBCDA0C93623C54D0403A43514FABC40084EC96B6D5379A74786298 DUP15 DUP13 DUP13 DUP13 PUSH1 0x40 MLOAD PUSH2 0xBD2 SWAP5 SWAP4 SWAP3 SWAP2 SWAP1 PUSH2 0x2E99 JUMP JUMPDEST PUSH1 0x40 MLOAD DUP1 SWAP2 SUB SWAP1 LOG4 POP POP POP POP POP POP POP POP POP POP POP JUMP JUMPDEST PUSH0 PUSH2 0xBF3 DUP5 DUP5 DUP5 PUSH2 0x188F JUMP JUMPDEST SWAP5 SWAP4 POP POP POP POP JUMP JUMPDEST PUSH0 PUSH2 0xBF3 DUP5 DUP5 DUP5 PUSH2 0x13F1 JUMP JUMPDEST PUSH1 0x1 DUP3 GT PUSH2 0xC57 JUMPI PUSH1 0x40 MLOAD PUSH3 0x461BCD PUSH1 0xE5 SHL DUP2 MSTORE PUSH1 0x20 PUSH1 0x4 DUP3 ADD DUP2 SWAP1 MSTORE PUSH1 0x24 DUP3 ADD MSTORE PUSH32 0x676F7420656D707479206F722073696E676C65746F6E20706172746974696F6E PUSH1 0x44 DUP3 ADD MSTORE PUSH1 0x64 ADD PUSH2 0x36B JUMP JUMPDEST PUSH0 DUP5 DUP2 MSTORE PUSH1 0x3 PUSH1 0x20 MSTORE PUSH1 0x40 SWAP1 KECCAK256 SLOAD DUP1 PUSH2 0xC82 JUMPI PUSH1 0x40 MLOAD PUSH3 0x461BCD PUSH1 0xE5 SHL DUP2 MSTORE PUSH1 0x4 ADD PUSH2 0x36B SWAP1 PUSH2 0x2D11 JUMP JUMPDEST PUSH0 PUSH2 0xC90 PUSH1 0x1 DUP1 DUP5 SHL PUSH2 0x2D5C JUMP JUMPDEST SWAP1 POP DUP1 PUSH0 DUP6 PUSH1 0x1 PUSH1 0x1 PUSH1 0x40 SHL SUB DUP2 GT ISZERO PUSH2 0xCAC JUMPI PUSH2 0xCAC PUSH2 0x2842 JUMP JUMPDEST PUSH1 0x40 MLOAD SWAP1 DUP1 DUP3 MSTORE DUP1 PUSH1 0x20 MUL PUSH1 0x20 ADD DUP3 ADD PUSH1 0x40 MSTORE DUP1 ISZERO PUSH2 0xCD5 JUMPI DUP2 PUSH1 0x20 ADD PUSH1 0x20 DUP3 MUL DUP1 CALLDATASIZE DUP4 CALLDATACOPY ADD SWAP1 POP JUMPDEST POP SWAP1 POP PUSH0 DUP7 PUSH1 0x1 PUSH1 0x1 PUSH1 0x40 SHL SUB DUP2 GT ISZERO PUSH2 0xCF1 JUMPI PUSH2 0xCF1 PUSH2 0x2842 JUMP JUMPDEST PUSH1 0x40 MLOAD SWAP1 DUP1 DUP3 MSTORE DUP1 PUSH1 0x20 MUL PUSH1 0x20 ADD DUP3 ADD PUSH1 0x40 MSTORE DUP1 ISZERO PUSH2 0xD1A JUMPI DUP2 PUSH1 0x20 ADD PUSH1 0x20 DUP3 MUL DUP1 CALLDATASIZE DUP4 CALLDATACOPY ADD SWAP1 POP JUMPDEST POP SWAP1 POP PUSH0 JUMPDEST DUP8 DUP2 LT ISZERO PUSH2 0xE0F JUMPI PUSH0 DUP10 DUP10 DUP4 DUP2 DUP2 LT PUSH2 0xD3A JUMPI PUSH2 0xD3A PUSH2 0x2D6F JUMP JUMPDEST SWAP1 POP PUSH1 0x20 MUL ADD CALLDATALOAD SWAP1 POP PUSH0 DUP2 GT DUP1 ISZERO PUSH2 0xD51 JUMPI POP DUP6 DUP2 LT JUMPDEST PUSH2 0xD6D JUMPI PUSH1 0x40 MLOAD PUSH3 0x461BCD PUSH1 0xE5 SHL DUP2 MSTORE PUSH1 0x4 ADD PUSH2 0x36B SWAP1 PUSH2 0x2D83 JUMP JUMPDEST DUP1 DUP6 DUP3 AND EQ PUSH2 0xDB7 JUMPI PUSH1 0x40 MLOAD PUSH3 0x461BCD PUSH1 0xE5 SHL DUP2 MSTORE PUSH1 0x20 PUSH1 0x4 DUP3 ADD MSTORE PUSH1 0x16 PUSH1 0x24 DUP3 ADD MSTORE PUSH22 0x1C185C9D1A5D1A5BDB881B9BDD08191A5CDA9BDA5B9D PUSH1 0x52 SHL PUSH1 0x44 DUP3 ADD MSTORE PUSH1 0x64 ADD PUSH2 0x36B JUMP JUMPDEST SWAP4 DUP5 XOR SWAP4 PUSH2 0xDCA DUP14 PUSH2 0x410 DUP15 DUP15 DUP6 PUSH2 0x13F1 JUMP JUMPDEST DUP5 DUP4 DUP2 MLOAD DUP2 LT PUSH2 0xDDC JUMPI PUSH2 0xDDC PUSH2 0x2D6F JUMP JUMPDEST PUSH1 0x20 MUL PUSH1 0x20 ADD ADD DUP2 DUP2 MSTORE POP POP DUP8 DUP4 DUP4 DUP2 MLOAD DUP2 LT PUSH2 0xDFB JUMPI PUSH2 0xDFB PUSH2 0x2D6F JUMP JUMPDEST PUSH1 0x20 SWAP1 DUP2 MUL SWAP2 SWAP1 SWAP2 ADD ADD MSTORE POP PUSH1 0x1 ADD PUSH2 0xD1F JUMP JUMPDEST POP PUSH2 0xE1B CALLER DUP4 DUP4 PUSH2 0x18DD JUMP JUMPDEST DUP3 PUSH0 SUB PUSH2 0xF09 JUMPI DUP10 PUSH2 0xEE6 JUMPI PUSH1 0x40 MLOAD PUSH4 0xA9059CBB PUSH1 0xE0 SHL DUP2 MSTORE CALLER PUSH1 0x4 DUP3 ADD MSTORE PUSH1 0x24 DUP2 ADD DUP8 SWAP1 MSTORE PUSH1 0x1 PUSH1 0x1 PUSH1 0xA0 SHL SUB DUP13 AND SWAP1 PUSH4 0xA9059CBB SWAP1 PUSH1 0x44 ADD PUSH1 0x20 PUSH1 0x40 MLOAD DUP1 DUP4 SUB DUP2 PUSH0 DUP8 GAS CALL ISZERO DUP1 ISZERO PUSH2 0xE71 JUMPI RETURNDATASIZE PUSH0 PUSH0 RETURNDATACOPY RETURNDATASIZE PUSH0 REVERT JUMPDEST POP POP POP POP PUSH1 0x40 MLOAD RETURNDATASIZE PUSH1 0x1F NOT PUSH1 0x1F DUP3 ADD AND DUP3 ADD DUP1 PUSH1 0x40 MSTORE POP DUP2 ADD SWAP1 PUSH2 0xE95 SWAP2 SWAP1 PUSH2 0x2DEC JUMP JUMPDEST PUSH2 0xEE1 JUMPI PUSH1 0x40 MLOAD PUSH3 0x461BCD PUSH1 0xE5 SHL DUP2 MSTORE PUSH1 0x20 PUSH1 0x4 DUP3 ADD DUP2 SWAP1 MSTORE PUSH1 0x24 DUP3 ADD MSTORE PUSH32 0x636F756C64206E6F742073656E6420636F6C6C61746572616C20746F6B656E73 PUSH1 0x44 DUP3 ADD MSTORE PUSH1 0x64 ADD PUSH2 0x36B JUMP JUMPDEST PUSH2 0xF1E JUMP JUMPDEST PUSH2 0xEE1 CALLER PUSH2 0xEF4 DUP14 DUP14 PUSH2 0x16E6 JUMP JUMPDEST DUP9 PUSH1 0x40 MLOAD DUP1 PUSH1 0x20 ADD PUSH1 0x40 MSTORE DUP1 PUSH0 DUP2 MSTORE POP PUSH2 0x179A JUMP JUMPDEST PUSH2 0xF1E CALLER PUSH2 0xEF4 DUP14 PUSH2 0x410 DUP15 DUP15 DUP10 DUP12 XOR PUSH2 0x13F1 JUMP JUMPDEST DUP9 DUP11 CALLER PUSH1 0x1 PUSH1 0x1 PUSH1 0xA0 SHL SUB AND PUSH32 0x6F13CA62553FCC2BCD2372180A43949C1E4CEBBA603901EDE2F4E14F36B282CA DUP15 DUP13 DUP13 DUP13 PUSH1 0x40 MLOAD PUSH2 0xBD2 SWAP5 SWAP4 SWAP3 SWAP2 SWAP1 PUSH2 0x2E99 JUMP JUMPDEST PUSH2 0xF6A CALLER DUP4 DUP4 PUSH2 0x1925 JUMP JUMPDEST POP POP JUMP JUMPDEST DUP1 PUSH1 0x1 DUP2 GT PUSH2 0xF8F JUMPI PUSH1 0x40 MLOAD PUSH3 0x461BCD PUSH1 0xE5 SHL DUP2 MSTORE PUSH1 0x4 ADD PUSH2 0x36B SWAP1 PUSH2 0x2EBD JUMP JUMPDEST PUSH0 PUSH2 0xF9B CALLER DUP7 DUP5 PUSH2 0x188F JUMP JUMPDEST PUSH0 DUP2 DUP2 MSTORE PUSH1 0x3 PUSH1 0x20 MSTORE PUSH1 0x40 SWAP1 KECCAK256 SLOAD SWAP1 SWAP2 POP DUP3 EQ PUSH2 0xFFA JUMPI PUSH1 0x40 MLOAD PUSH3 0x461BCD PUSH1 0xE5 SHL DUP2 MSTORE PUSH1 0x20 PUSH1 0x4 DUP3 ADD MSTORE PUSH1 0x1F PUSH1 0x24 DUP3 ADD MSTORE PUSH32 0x636F6E646974696F6E206E6F74207072657061726564206F7220666F756E6400 PUSH1 0x44 DUP3 ADD MSTORE PUSH1 0x64 ADD PUSH2 0x36B JUMP JUMPDEST PUSH0 DUP2 DUP2 MSTORE PUSH1 0x4 PUSH1 0x20 MSTORE PUSH1 0x40 SWAP1 KECCAK256 SLOAD ISZERO PUSH2 0x1055 JUMPI PUSH1 0x40 MLOAD PUSH3 0x461BCD PUSH1 0xE5 SHL DUP2 MSTORE PUSH1 0x20 PUSH1 0x4 DUP3 ADD MSTORE PUSH1 0x1E PUSH1 0x24 DUP3 ADD MSTORE PUSH32 0x7061796F75742064656E6F6D696E61746F7220616C7265616479207365740000 PUSH1 0x44 DUP3 ADD MSTORE PUSH1 0x64 ADD PUSH2 0x36B JUMP JUMPDEST PUSH0 DUP1 JUMPDEST DUP4 DUP2 LT ISZERO PUSH2 0x1138 JUMPI PUSH0 DUP7 DUP7 DUP4 DUP2 DUP2 LT PUSH2 0x1073 JUMPI PUSH2 0x1073 PUSH2 0x2D6F JUMP JUMPDEST SWAP1 POP PUSH1 0x20 MUL ADD CALLDATALOAD SWAP1 POP DUP1 DUP4 PUSH2 0x1088 SWAP2 SWAP1 PUSH2 0x2DB2 JUMP JUMPDEST PUSH0 DUP6 DUP2 MSTORE PUSH1 0x3 PUSH1 0x20 MSTORE PUSH1 0x40 SWAP1 KECCAK256 DUP1 SLOAD SWAP2 SWAP5 POP SWAP1 DUP4 SWAP1 DUP2 LT PUSH2 0x10AB JUMPI PUSH2 0x10AB PUSH2 0x2D6F JUMP JUMPDEST SWAP1 PUSH0 MSTORE PUSH1 0x20 PUSH0 KECCAK256 ADD SLOAD PUSH0 EQ PUSH2 0x1102 JUMPI PUSH1 0x40 MLOAD PUSH3 0x461BCD PUSH1 0xE5 SHL DUP2 MSTORE PUSH1 0x20 PUSH1 0x4 DUP3 ADD MSTORE PUSH1 0x1C PUSH1 0x24 DUP3 ADD MSTORE PUSH32 0x7061796F7574206E756D657261746F7220616C72656164792073657400000000 PUSH1 0x44 DUP3 ADD MSTORE PUSH1 0x64 ADD PUSH2 0x36B JUMP JUMPDEST PUSH0 DUP5 DUP2 MSTORE PUSH1 0x3 PUSH1 0x20 MSTORE PUSH1 0x40 SWAP1 KECCAK256 DUP1 SLOAD DUP3 SWAP2 SWAP1 DUP5 SWAP1 DUP2 LT PUSH2 0x1124 JUMPI PUSH2 0x1124 PUSH2 0x2D6F JUMP JUMPDEST PUSH0 SWAP2 DUP3 MSTORE PUSH1 0x20 SWAP1 SWAP2 KECCAK256 ADD SSTORE POP PUSH1 0x1 ADD PUSH2 0x1058 JUMP JUMPDEST POP PUSH0 DUP2 GT PUSH2 0x117F JUMPI PUSH1 0x40 MLOAD PUSH3 0x461BCD PUSH1 0xE5 SHL DUP2 MSTORE PUSH1 0x20 PUSH1 0x4 DUP3 ADD MSTORE PUSH1 0x14 PUSH1 0x24 DUP3 ADD MSTORE PUSH20 0x7061796F757420697320616C6C207A65726F6573 PUSH1 0x60 SHL PUSH1 0x44 DUP3 ADD MSTORE PUSH1 0x64 ADD PUSH2 0x36B JUMP JUMPDEST PUSH0 DUP3 DUP2 MSTORE PUSH1 0x4 PUSH1 0x20 SWAP1 DUP2 MSTORE PUSH1 0x40 DUP1 DUP4 KECCAK256 DUP5 SWAP1 SSTORE PUSH1 0x3 SWAP1 SWAP2 MSTORE SWAP1 DUP2 SWAP1 KECCAK256 SWAP1 MLOAD DUP8 SWAP2 CALLER SWAP2 DUP6 SWAP2 PUSH32 0xB44D84D3289691F71497564B85D4233648D9DBAE8CBDBB4329F301C3A0185894 SWAP2 PUSH2 0x11D0 SWAP2 DUP10 SWAP2 PUSH2 0x2F07 JUMP JUMPDEST PUSH1 0x40 MLOAD DUP1 SWAP2 SUB SWAP1 LOG4 POP POP POP POP POP POP JUMP JUMPDEST PUSH2 0x100 DUP2 GT ISZERO PUSH2 0x122B JUMPI PUSH1 0x40 MLOAD PUSH3 0x461BCD PUSH1 0xE5 SHL DUP2 MSTORE PUSH1 0x20 PUSH1 0x4 DUP3 ADD MSTORE PUSH1 0x16 PUSH1 0x24 DUP3 ADD MSTORE PUSH22 0x746F6F206D616E79206F7574636F6D6520736C6F7473 PUSH1 0x50 SHL PUSH1 0x44 DUP3 ADD MSTORE PUSH1 0x64 ADD PUSH2 0x36B JUMP JUMPDEST PUSH1 0x1 DUP2 GT PUSH2 0x124B JUMPI PUSH1 0x40 MLOAD PUSH3 0x461BCD PUSH1 0xE5 SHL DUP2 MSTORE PUSH1 0x4 ADD PUSH2 0x36B SWAP1 PUSH2 0x2EBD JUMP JUMPDEST PUSH0 PUSH2 0x1257 DUP5 DUP5 DUP5 PUSH2 0x188F JUMP JUMPDEST PUSH0 DUP2 DUP2 MSTORE PUSH1 0x3 PUSH1 0x20 MSTORE PUSH1 0x40 SWAP1 KECCAK256 SLOAD SWAP1 SWAP2 POP ISZERO PUSH2 0x12B5 JUMPI PUSH1 0x40 MLOAD PUSH3 0x461BCD PUSH1 0xE5 SHL DUP2 MSTORE PUSH1 0x20 PUSH1 0x4 DUP3 ADD MSTORE PUSH1 0x1A PUSH1 0x24 DUP3 ADD MSTORE PUSH32 0x636F6E646974696F6E20616C7265616479207072657061726564000000000000 PUSH1 0x44 DUP3 ADD MSTORE PUSH1 0x64 ADD PUSH2 0x36B JUMP JUMPDEST DUP2 PUSH1 0x1 PUSH1 0x1 PUSH1 0x40 SHL SUB DUP2 GT ISZERO PUSH2 0x12CD JUMPI PUSH2 0x12CD PUSH2 0x2842 JUMP JUMPDEST PUSH1 0x40 MLOAD SWAP1 DUP1 DUP3 MSTORE DUP1 PUSH1 0x20 MUL PUSH1 0x20 ADD DUP3 ADD PUSH1 0x40 MSTORE DUP1 ISZERO PUSH2 0x12F6 JUMPI DUP2 PUSH1 0x20 ADD PUSH1 0x20 DUP3 MUL DUP1 CALLDATASIZE DUP4 CALLDATACOPY ADD SWAP1 POP JUMPDEST POP PUSH0 DUP3 DUP2 MSTORE PUSH1 0x3 PUSH1 0x20 SWAP1 DUP2 MSTORE PUSH1 0x40 SWAP1 SWAP2 KECCAK256 DUP3 MLOAD PUSH2 0x1319 SWAP4 SWAP2 SWAP3 SWAP2 SWAP1 SWAP2 ADD SWAP1 PUSH2 0x2652 JUMP JUMPDEST POP DUP3 DUP5 PUSH1 0x1 PUSH1 0x1 PUSH1 0xA0 SHL SUB AND DUP3 PUSH32 0xAB3760C3BD2BB38B5BCF54DC79802ED67338B4CF29F3054DED67ED24661E4177 DUP6 PUSH1 0x40 MLOAD PUSH2 0x1357 SWAP2 DUP2 MSTORE PUSH1 0x20 ADD SWAP1 JUMP JUMPDEST PUSH1 0x40 MLOAD DUP1 SWAP2 SUB SWAP1 LOG4 POP POP POP POP JUMP JUMPDEST PUSH1 0x1 PUSH1 0x1 PUSH1 0xA0 SHL SUB SWAP2 DUP3 AND PUSH0 SWAP1 DUP2 MSTORE PUSH1 0x1 PUSH1 0x20 SWAP1 DUP2 MSTORE PUSH1 0x40 DUP1 DUP4 KECCAK256 SWAP4 SWAP1 SWAP5 AND DUP3 MSTORE SWAP2 SWAP1 SWAP2 MSTORE KECCAK256 SLOAD PUSH1 0xFF AND SWAP1 JUMP JUMPDEST CALLER PUSH1 0x1 PUSH1 0x1 PUSH1 0xA0 SHL SUB DUP7 AND DUP2 EQ DUP1 ISZERO SWAP1 PUSH2 0x13B3 JUMPI POP PUSH2 0x13B1 DUP7 DUP3 PUSH2 0x1365 JUMP JUMPDEST ISZERO JUMPDEST ISZERO PUSH2 0x13E4 JUMPI PUSH1 0x40 MLOAD PUSH4 0x711BEC91 PUSH1 0xE1 SHL DUP2 MSTORE PUSH1 0x1 PUSH1 0x1 PUSH1 0xA0 SHL SUB DUP1 DUP4 AND PUSH1 0x4 DUP4 ADD MSTORE DUP8 AND PUSH1 0x24 DUP3 ADD MSTORE PUSH1 0x44 ADD PUSH2 0x36B JUMP JUMPDEST PUSH2 0x784 DUP7 DUP7 DUP7 DUP7 DUP7 PUSH2 0x19B9 JUMP JUMPDEST PUSH0 PUSH0 DUP4 DUP4 PUSH1 0x40 MLOAD PUSH1 0x20 ADD PUSH2 0x140F SWAP3 SWAP2 SWAP1 SWAP2 DUP3 MSTORE PUSH1 0x20 DUP3 ADD MSTORE PUSH1 0x40 ADD SWAP1 JUMP JUMPDEST PUSH1 0x40 DUP1 MLOAD PUSH1 0x1F NOT DUP2 DUP5 SUB ADD DUP2 MSTORE SWAP2 SWAP1 MSTORE DUP1 MLOAD PUSH1 0x20 SWAP1 SWAP2 ADD KECCAK256 SWAP1 POP PUSH1 0xFF DUP2 SWAP1 SHR ISZERO ISZERO PUSH0 DUP1 JUMPDEST PUSH0 MLOAD PUSH1 0x20 PUSH2 0x308C PUSH0 CODECOPY PUSH0 MLOAD SWAP1 PUSH0 MSTORE PUSH1 0x1 DUP6 ADDMOD SWAP4 POP PUSH0 MLOAD PUSH1 0x20 PUSH2 0x308C PUSH0 CODECOPY PUSH0 MLOAD SWAP1 PUSH0 MSTORE PUSH1 0x3 PUSH0 MLOAD PUSH1 0x20 PUSH2 0x308C PUSH0 CODECOPY PUSH0 MLOAD SWAP1 PUSH0 MSTORE DUP1 DUP8 DUP9 MULMOD DUP8 MULMOD ADDMOD SWAP1 POP PUSH2 0x1477 DUP2 PUSH2 0x1A45 JUMP JUMPDEST SWAP2 POP DUP1 PUSH0 MLOAD PUSH1 0x20 PUSH2 0x308C PUSH0 CODECOPY PUSH0 MLOAD SWAP1 PUSH0 MSTORE DUP4 DUP5 MULMOD SUB PUSH2 0x1433 JUMPI DUP3 DUP1 ISZERO PUSH2 0x14A5 JUMPI POP PUSH2 0x14A3 PUSH1 0x2 DUP4 PUSH2 0x2F57 JUMP JUMPDEST ISZERO JUMPDEST DUP1 PUSH2 0x14C3 JUMPI POP DUP3 ISZERO DUP1 ISZERO PUSH2 0x14C3 JUMPI POP PUSH2 0x14BF PUSH1 0x2 DUP4 PUSH2 0x2F57 JUMP JUMPDEST PUSH1 0x1 EQ JUMPDEST ISZERO PUSH2 0x14E2 JUMPI PUSH2 0x14DF DUP3 PUSH0 MLOAD PUSH1 0x20 PUSH2 0x308C PUSH0 CODECOPY PUSH0 MLOAD SWAP1 PUSH0 MSTORE PUSH2 0x2D5C JUMP JUMPDEST SWAP2 POP JUMPDEST DUP8 DUP1 ISZERO PUSH2 0x16BD JUMPI PUSH1 0xFE DUP2 SWAP1 SHR ISZERO ISZERO SWAP4 POP PUSH1 0x1 PUSH1 0x1 PUSH1 0xFE SHL SUB AND PUSH0 MLOAD PUSH1 0x20 PUSH2 0x308C PUSH0 CODECOPY PUSH0 MLOAD SWAP1 PUSH0 MSTORE PUSH1 0x3 PUSH0 MLOAD PUSH1 0x20 PUSH2 0x308C PUSH0 CODECOPY PUSH0 MLOAD SWAP1 PUSH0 MSTORE DUP1 DUP5 DUP6 MULMOD DUP5 MULMOD ADDMOD SWAP2 POP PUSH0 PUSH2 0x152C DUP4 PUSH2 0x1A45 JUMP JUMPDEST SWAP1 POP DUP5 DUP1 ISZERO PUSH2 0x1543 JUMPI POP PUSH2 0x1541 PUSH1 0x2 DUP3 PUSH2 0x2F57 JUMP JUMPDEST ISZERO JUMPDEST DUP1 PUSH2 0x1561 JUMPI POP DUP5 ISZERO DUP1 ISZERO PUSH2 0x1561 JUMPI POP PUSH2 0x155D PUSH1 0x2 DUP3 PUSH2 0x2F57 JUMP JUMPDEST PUSH1 0x1 EQ JUMPDEST ISZERO PUSH2 0x1580 JUMPI PUSH2 0x157D DUP2 PUSH0 MLOAD PUSH1 0x20 PUSH2 0x308C PUSH0 CODECOPY PUSH0 MLOAD SWAP1 PUSH0 MSTORE PUSH2 0x2D5C JUMP JUMPDEST SWAP1 POP JUMPDEST DUP3 PUSH0 MLOAD PUSH1 0x20 PUSH2 0x308C PUSH0 CODECOPY PUSH0 MLOAD SWAP1 PUSH0 MSTORE DUP3 DUP4 MULMOD EQ PUSH2 0x15DF JUMPI PUSH1 0x40 MLOAD PUSH3 0x461BCD PUSH1 0xE5 SHL DUP2 MSTORE PUSH1 0x20 PUSH1 0x4 DUP3 ADD MSTORE PUSH1 0x1C PUSH1 0x24 DUP3 ADD MSTORE PUSH32 0x696E76616C696420706172656E7420636F6C6C656374696F6E20494400000000 PUSH1 0x44 DUP3 ADD MSTORE PUSH1 0x64 ADD PUSH2 0x36B JUMP JUMPDEST PUSH1 0x40 DUP1 MLOAD PUSH1 0x20 DUP2 ADD DUP9 SWAP1 MSTORE SWAP1 DUP2 ADD DUP6 SWAP1 MSTORE PUSH1 0x60 DUP2 ADD DUP4 SWAP1 MSTORE PUSH1 0x80 DUP2 ADD DUP3 SWAP1 MSTORE PUSH0 SWAP1 DUP2 SWAP1 PUSH1 0x6 SWAP1 PUSH1 0xA0 ADD PUSH1 0x40 DUP1 MLOAD PUSH1 0x1F NOT DUP2 DUP5 SUB ADD DUP2 MSTORE SWAP1 DUP3 SWAP1 MSTORE PUSH2 0x1622 SWAP2 PUSH2 0x2F6A JUMP JUMPDEST PUSH0 PUSH1 0x40 MLOAD DUP1 DUP4 SUB DUP2 DUP6 GAS STATICCALL SWAP2 POP POP RETURNDATASIZE DUP1 PUSH0 DUP2 EQ PUSH2 0x165A JUMPI PUSH1 0x40 MLOAD SWAP2 POP PUSH1 0x1F NOT PUSH1 0x3F RETURNDATASIZE ADD AND DUP3 ADD PUSH1 0x40 MSTORE RETURNDATASIZE DUP3 MSTORE RETURNDATASIZE PUSH0 PUSH1 0x20 DUP5 ADD RETURNDATACOPY PUSH2 0x165F JUMP JUMPDEST PUSH1 0x60 SWAP2 POP JUMPDEST POP SWAP2 POP SWAP2 POP DUP2 PUSH2 0x16A0 JUMPI PUSH1 0x40 MLOAD PUSH3 0x461BCD PUSH1 0xE5 SHL DUP2 MSTORE PUSH1 0x20 PUSH1 0x4 DUP3 ADD MSTORE PUSH1 0xC PUSH1 0x24 DUP3 ADD MSTORE PUSH12 0x1958D859190819985A5B1959 PUSH1 0xA2 SHL PUSH1 0x44 DUP3 ADD MSTORE PUSH1 0x64 ADD PUSH2 0x36B JUMP JUMPDEST DUP1 DUP1 PUSH1 0x20 ADD SWAP1 MLOAD DUP2 ADD SWAP1 PUSH2 0x16B4 SWAP2 SWAP1 PUSH2 0x2F80 JUMP JUMPDEST SWAP1 SWAP9 POP SWAP6 POP POP POP POP JUMPDEST PUSH2 0x16C8 PUSH1 0x2 DUP5 PUSH2 0x2F57 JUMP JUMPDEST PUSH1 0x1 SUB PUSH2 0x16D9 JUMPI PUSH1 0x1 PUSH1 0xFE SHL DUP6 XOR SWAP5 POP JUMPDEST POP SWAP3 SWAP8 SWAP7 POP POP POP POP POP POP POP JUMP JUMPDEST PUSH1 0x40 MLOAD PUSH12 0xFFFFFFFFFFFFFFFFFFFFFFFF NOT PUSH1 0x60 DUP5 SWAP1 SHL AND PUSH1 0x20 DUP3 ADD MSTORE PUSH1 0x34 DUP2 ADD DUP3 SWAP1 MSTORE PUSH0 SWAP1 PUSH1 0x54 ADD PUSH1 0x40 DUP1 MLOAD PUSH1 0x1F NOT DUP2 DUP5 SUB ADD DUP2 MSTORE SWAP2 SWAP1 MSTORE DUP1 MLOAD PUSH1 0x20 SWAP1 SWAP2 ADD KECCAK256 SWAP4 SWAP3 POP POP POP JUMP JUMPDEST PUSH1 0x1 PUSH1 0x1 PUSH1 0xA0 SHL SUB DUP4 AND PUSH2 0x1755 JUMPI PUSH1 0x40 MLOAD PUSH3 0x6A0D45 PUSH1 0xE2 SHL DUP2 MSTORE PUSH0 PUSH1 0x4 DUP3 ADD MSTORE PUSH1 0x24 ADD PUSH2 0x36B JUMP JUMPDEST PUSH1 0x40 DUP1 MLOAD PUSH1 0x1 DUP1 DUP3 MSTORE PUSH1 0x20 DUP3 ADD DUP6 SWAP1 MSTORE DUP2 DUP4 ADD SWAP1 DUP2 MSTORE PUSH1 0x60 DUP3 ADD DUP5 SWAP1 MSTORE PUSH1 0xA0 DUP3 ADD SWAP1 SWAP3 MSTORE PUSH0 PUSH1 0x80 DUP3 ADD DUP2 DUP2 MSTORE SWAP2 SWAP3 SWAP2 PUSH2 0x1793 SWAP2 DUP8 SWAP2 DUP6 SWAP1 DUP6 SWAP1 PUSH2 0x21E8 JUMP JUMPDEST POP POP POP POP POP JUMP JUMPDEST PUSH1 0x1 PUSH1 0x1 PUSH1 0xA0 SHL SUB DUP5 AND PUSH2 0x17C3 JUMPI PUSH1 0x40 MLOAD PUSH4 0x2BFA23E7 PUSH1 0xE1 SHL DUP2 MSTORE PUSH0 PUSH1 0x4 DUP3 ADD MSTORE PUSH1 0x24 ADD PUSH2 0x36B JUMP JUMPDEST PUSH1 0x40 DUP1 MLOAD PUSH1 0x1 DUP1 DUP3 MSTORE PUSH1 0x20 DUP3 ADD DUP7 SWAP1 MSTORE DUP2 DUP4 ADD SWAP1 DUP2 MSTORE PUSH1 0x60 DUP3 ADD DUP6 SWAP1 MSTORE PUSH1 0x80 DUP3 ADD SWAP1 SWAP3 MSTORE SWAP1 PUSH2 0x784 PUSH0 DUP8 DUP5 DUP5 DUP8 PUSH2 0x21E8 JUMP JUMPDEST PUSH1 0x1 PUSH1 0x1 PUSH1 0xA0 SHL SUB DUP5 AND PUSH2 0x181E JUMPI PUSH1 0x40 MLOAD PUSH4 0x2BFA23E7 PUSH1 0xE1 SHL DUP2 MSTORE PUSH0 PUSH1 0x4 DUP3 ADD MSTORE PUSH1 0x24 ADD PUSH2 0x36B JUMP JUMPDEST PUSH1 0x1 PUSH1 0x1 PUSH1 0xA0 SHL SUB DUP6 AND PUSH2 0x1846 JUMPI PUSH1 0x40 MLOAD PUSH3 0x6A0D45 PUSH1 0xE2 SHL DUP2 MSTORE PUSH0 PUSH1 0x4 DUP3 ADD MSTORE PUSH1 0x24 ADD PUSH2 0x36B JUMP JUMPDEST PUSH2 0x1793 DUP6 DUP6 DUP6 DUP6 DUP6 PUSH2 0x21E8 JUMP JUMPDEST PUSH1 0x1 PUSH1 0x1 PUSH1 0xA0 SHL SUB DUP5 AND PUSH2 0x187C JUMPI PUSH1 0x40 MLOAD PUSH4 0x2BFA23E7 PUSH1 0xE1 SHL DUP2 MSTORE PUSH0 PUSH1 0x4 DUP3 ADD MSTORE PUSH1 0x24 ADD PUSH2 0x36B JUMP JUMPDEST PUSH2 0x1889 PUSH0 DUP6 DUP6 DUP6 DUP6 PUSH2 0x21E8 JUMP JUMPDEST POP POP POP POP JUMP JUMPDEST PUSH1 0x40 MLOAD PUSH12 0xFFFFFFFFFFFFFFFFFFFFFFFF NOT PUSH1 0x60 DUP6 SWAP1 SHL AND PUSH1 0x20 DUP3 ADD MSTORE PUSH1 0x34 DUP2 ADD DUP4 SWAP1 MSTORE PUSH1 0x54 DUP2 ADD DUP3 SWAP1 MSTORE PUSH0 SWAP1 PUSH1 0x74 ADD PUSH1 0x40 MLOAD PUSH1 0x20 DUP2 DUP4 SUB SUB DUP2 MSTORE SWAP1 PUSH1 0x40 MSTORE DUP1 MLOAD SWAP1 PUSH1 0x20 ADD KECCAK256 SWAP1 POP SWAP4 SWAP3 POP POP POP JUMP JUMPDEST PUSH1 0x1 PUSH1 0x1 PUSH1 0xA0 SHL SUB DUP4 AND PUSH2 0x1905 JUMPI PUSH1 0x40 MLOAD PUSH3 0x6A0D45 PUSH1 0xE2 SHL DUP2 MSTORE PUSH0 PUSH1 0x4 DUP3 ADD MSTORE PUSH1 0x24 ADD PUSH2 0x36B JUMP JUMPDEST PUSH2 0x1920 DUP4 PUSH0 DUP5 DUP5 PUSH1 0x40 MLOAD DUP1 PUSH1 0x20 ADD PUSH1 0x40 MSTORE DUP1 PUSH0 DUP2 MSTORE POP PUSH2 0x21E8 JUMP JUMPDEST POP POP POP JUMP JUMPDEST PUSH1 0x1 PUSH1 0x1 PUSH1 0xA0 SHL SUB DUP3 AND PUSH2 0x194D JUMPI PUSH1 0x40 MLOAD PUSH3 0xCED3E1 PUSH1 0xE8 SHL DUP2 MSTORE PUSH0 PUSH1 0x4 DUP3 ADD MSTORE PUSH1 0x24 ADD PUSH2 0x36B JUMP JUMPDEST PUSH1 0x1 PUSH1 0x1 PUSH1 0xA0 SHL SUB DUP4 DUP2 AND PUSH0 DUP2 DUP2 MSTORE PUSH1 0x1 PUSH1 0x20 SWAP1 DUP2 MSTORE PUSH1 0x40 DUP1 DUP4 KECCAK256 SWAP5 DUP8 AND DUP1 DUP5 MSTORE SWAP5 DUP3 MSTORE SWAP2 DUP3 SWAP1 KECCAK256 DUP1 SLOAD PUSH1 0xFF NOT AND DUP7 ISZERO ISZERO SWAP1 DUP2 OR SWAP1 SWAP2 SSTORE SWAP2 MLOAD SWAP2 DUP3 MSTORE PUSH32 0x17307EAB39AB6107E8899845AD3D59BD9653F200F220920489CA2B5937696C31 SWAP2 ADD PUSH1 0x40 MLOAD DUP1 SWAP2 SUB SWAP1 LOG3 POP POP POP JUMP JUMPDEST PUSH1 0x1 PUSH1 0x1 PUSH1 0xA0 SHL SUB DUP5 AND PUSH2 0x19E2 JUMPI PUSH1 0x40 MLOAD PUSH4 0x2BFA23E7 PUSH1 0xE1 SHL DUP2 MSTORE PUSH0 PUSH1 0x4 DUP3 ADD MSTORE PUSH1 0x24 ADD PUSH2 0x36B JUMP JUMPDEST PUSH1 0x1 PUSH1 0x1 PUSH1 0xA0 SHL SUB DUP6 AND PUSH2 0x1A0A JUMPI PUSH1 0x40 MLOAD PUSH3 0x6A0D45 PUSH1 0xE2 SHL DUP2 MSTORE PUSH0 PUSH1 0x4 DUP3 ADD MSTORE PUSH1 0x24 ADD PUSH2 0x36B JUMP JUMPDEST PUSH1 0x40 DUP1 MLOAD PUSH1 0x1 DUP1 DUP3 MSTORE PUSH1 0x20 DUP3 ADD DUP7 SWAP1 MSTORE DUP2 DUP4 ADD SWAP1 DUP2 MSTORE PUSH1 0x60 DUP3 ADD DUP6 SWAP1 MSTORE PUSH1 0x80 DUP3 ADD SWAP1 SWAP3 MSTORE SWAP1 PUSH2 0x1A3C DUP8 DUP8 DUP5 DUP5 DUP8 PUSH2 0x21E8 JUMP JUMPDEST POP POP POP POP POP POP POP JUMP JUMPDEST PUSH0 PUSH0 MLOAD PUSH1 0x20 PUSH2 0x308C PUSH0 CODECOPY PUSH0 MLOAD SWAP1 PUSH0 MSTORE DUP1 DUP4 DUP1 MULMOD SWAP2 POP DUP1 DUP3 DUP4 MULMOD DUP2 DUP2 DUP3 MULMOD SWAP1 POP DUP2 DUP2 DUP5 MULMOD SWAP3 POP DUP2 DUP4 DUP6 MULMOD SWAP4 POP DUP2 DUP5 DUP5 MULMOD SWAP3 POP DUP2 DUP4 DUP5 MULMOD SWAP1 POP DUP2 DUP2 DUP3 MULMOD DUP3 DUP2 DUP4 MULMOD SWAP1 POP DUP3 DUP2 DUP3 MULMOD SWAP1 POP DUP3 DUP2 DUP3 MULMOD SWAP1 POP DUP3 DUP2 DUP4 MULMOD SWAP2 POP DUP3 DUP3 DUP7 MULMOD SWAP5 POP DUP3 DUP6 DUP7 MULMOD SWAP2 POP DUP3 DUP3 DUP4 MULMOD SWAP2 POP DUP3 DUP3 DUP6 MULMOD SWAP4 POP DUP3 DUP5 DUP6 MULMOD SWAP2 POP DUP3 DUP3 DUP4 MULMOD SWAP2 POP DUP3 DUP3 DUP4 MULMOD SWAP2 POP DUP3 DUP3 DUP6 MULMOD SWAP2 POP DUP3 DUP3 DUP7 MULMOD SWAP5 POP DUP3 DUP6 DUP7 MULMOD SWAP2 POP DUP3 DUP3 DUP4 MULMOD SWAP2 POP DUP3 DUP3 DUP4 MULMOD SWAP2 POP DUP3 DUP3 DUP7 MULMOD SWAP2 POP DUP3 DUP3 DUP6 MULMOD SWAP4 POP DUP3 DUP5 DUP7 MULMOD SWAP5 POP DUP3 DUP6 DUP7 MULMOD SWAP2 POP DUP3 DUP3 DUP4 MULMOD SWAP2 POP DUP3 DUP3 DUP6 MULMOD SWAP4 POP DUP3 DUP5 DUP6 MULMOD SWAP2 POP DUP3 DUP3 DUP4 MULMOD SWAP1 POP DUP3 DUP2 DUP3 MULMOD SWAP1 POP DUP3 DUP2 DUP3 MULMOD SWAP1 POP DUP3 DUP2 DUP4 MULMOD SWAP2 POP DUP3 DUP3 DUP7 MULMOD SWAP5 POP DUP3 DUP6 DUP6 MULMOD SWAP4 POP DUP3 DUP5 DUP6 MULMOD SWAP2 POP DUP3 DUP3 DUP4 MULMOD SWAP2 POP DUP3 DUP3 DUP4 MULMOD SWAP2 POP DUP3 DUP3 DUP7 MULMOD SWAP5 POP DUP3 DUP6 DUP7 MULMOD SWAP2 POP DUP3 DUP3 DUP4 MULMOD SWAP2 POP DUP3 DUP3 DUP7 MULMOD SWAP2 POP DUP3 DUP3 DUP4 MULMOD SWAP2 POP DUP3 DUP3 DUP4 MULMOD SWAP2 POP DUP3 DUP3 DUP7 MULMOD SWAP2 POP DUP3 DUP3 DUP6 MULMOD SWAP4 POP DUP3 DUP5 DUP6 MULMOD SWAP2 POP DUP3 DUP3 DUP4 MULMOD SWAP1 POP DUP3 DUP2 DUP3 MULMOD SWAP1 POP DUP3 DUP2 DUP4 MULMOD SWAP1 POP DUP3 DUP2 DUP6 MULMOD SWAP1 POP DUP3 DUP2 DUP3 MULMOD SWAP1 POP DUP3 DUP2 DUP3 MULMOD SWAP1 POP DUP3 DUP2 DUP3 MULMOD SWAP1 POP DUP3 DUP2 DUP3 MULMOD SWAP1 POP DUP3 DUP2 DUP4 MULMOD SWAP2 POP DUP3 DUP3 DUP7 MULMOD SWAP5 POP DUP3 DUP6 DUP7 MULMOD SWAP2 POP DUP3 DUP3 DUP7 MULMOD SWAP2 POP DUP3 DUP3 DUP6 MULMOD SWAP4 POP DUP3 DUP5 DUP6 MULMOD SWAP2 POP DUP3 DUP3 DUP6 MULMOD SWAP2 POP DUP3 DUP3 DUP4 MULMOD SWAP2 POP DUP3 DUP3 DUP4 MULMOD SWAP1 POP DUP3 DUP2 DUP4 MULMOD SWAP1 POP DUP3 DUP2 DUP3 MULMOD DUP4 DUP2 DUP3 MULMOD SWAP1 POP DUP4 DUP2 DUP3 MULMOD SWAP1 POP DUP4 DUP2 DUP3 MULMOD SWAP1 POP DUP4 DUP2 DUP3 MULMOD SWAP1 POP DUP4 DUP2 DUP4 MULMOD SWAP2 POP POP DUP3 DUP2 DUP4 MULMOD SWAP2 POP DUP3 DUP3 DUP7 MULMOD SWAP5 POP DUP3 DUP6 DUP6 MULMOD SWAP4 POP DUP3 DUP5 DUP6 MULMOD SWAP2 POP DUP3 DUP3 DUP7 MULMOD SWAP5 POP DUP3 DUP6 DUP6 MULMOD SWAP4 POP DUP3 DUP5 DUP7 MULMOD SWAP5 POP DUP3 DUP6 DUP6 MULMOD SWAP4 POP DUP3 DUP5 DUP7 MULMOD SWAP5 POP DUP3 DUP6 DUP7 MULMOD SWAP2 POP DUP3 DUP3 DUP7 MULMOD SWAP2 POP DUP3 DUP3 DUP4 MULMOD SWAP2 POP DUP3 DUP3 DUP6 MULMOD SWAP4 POP DUP3 DUP5 DUP6 MULMOD SWAP2 POP DUP3 DUP3 DUP4 MULMOD SWAP2 POP DUP3 DUP3 DUP7 MULMOD SWAP5 POP DUP3 DUP6 DUP6 MULMOD SWAP4 POP DUP3 DUP5 DUP6 MULMOD SWAP2 POP DUP3 DUP3 DUP6 MULMOD SWAP2 POP DUP3 DUP3 DUP7 MULMOD SWAP5 POP DUP3 DUP6 DUP6 MULMOD SWAP4 POP DUP3 DUP5 DUP7 MULMOD SWAP5 POP DUP3 DUP6 DUP6 MULMOD SWAP4 POP DUP3 DUP5 DUP6 MULMOD SWAP2 POP DUP3 DUP3 DUP4 MULMOD SWAP2 POP DUP3 DUP3 DUP6 MULMOD SWAP2 POP DUP3 DUP3 DUP7 MULMOD SWAP5 POP DUP3 DUP6 DUP7 MULMOD SWAP2 POP DUP3 DUP3 DUP7 MULMOD SWAP2 POP DUP3 DUP3 DUP6 MULMOD SWAP4 POP DUP3 DUP5 DUP7 MULMOD SWAP5 POP DUP3 DUP6 DUP6 MULMOD SWAP4 POP DUP3 DUP5 DUP7 MULMOD SWAP5 POP DUP3 DUP6 DUP6 MULMOD SWAP4 POP DUP3 DUP5 DUP6 MULMOD SWAP2 POP DUP3 DUP3 DUP6 MULMOD SWAP2 POP DUP3 DUP3 DUP4 MULMOD SWAP2 POP DUP3 DUP3 DUP7 MULMOD SWAP5 POP DUP3 DUP6 DUP6 MULMOD SWAP4 POP DUP3 DUP5 DUP6 MULMOD SWAP2 POP DUP3 DUP3 DUP6 MULMOD SWAP2 POP DUP3 DUP3 DUP4 MULMOD SWAP2 POP DUP3 DUP3 DUP7 MULMOD SWAP5 POP DUP3 DUP6 DUP7 MULMOD SWAP2 POP DUP3 DUP3 DUP4 MULMOD SWAP1 POP DUP3 DUP2 DUP3 MULMOD SWAP1 POP DUP3 DUP2 DUP4 MULMOD SWAP1 POP DUP3 DUP2 DUP7 MULMOD SWAP1 POP DUP3 DUP2 DUP3 MULMOD SWAP1 POP DUP3 DUP2 DUP3 MULMOD SWAP1 POP DUP3 DUP2 DUP3 MULMOD SWAP1 POP DUP3 DUP2 DUP3 MULMOD SWAP1 POP DUP3 DUP2 DUP4 MULMOD SWAP2 POP DUP3 DUP3 DUP6 MULMOD SWAP4 POP DUP3 DUP5 DUP7 MULMOD SWAP5 POP DUP3 DUP6 DUP6 MULMOD SWAP4 POP DUP3 DUP5 DUP7 MULMOD SWAP5 POP DUP3 DUP6 DUP7 MULMOD SWAP2 POP DUP3 DUP3 DUP7 MULMOD SWAP2 POP DUP3 DUP3 DUP4 MULMOD SWAP2 POP DUP3 DUP3 DUP4 MULMOD SWAP2 POP DUP3 DUP3 DUP4 MULMOD SWAP2 POP DUP3 DUP3 DUP7 MULMOD SWAP2 POP DUP3 DUP3 DUP6 MULMOD SWAP4 POP DUP3 DUP5 DUP6 MULMOD SWAP2 POP DUP3 DUP3 DUP6 MULMOD SWAP2 POP DUP3 DUP3 DUP4 MULMOD SWAP2 POP DUP3 DUP3 DUP7 MULMOD SWAP5 POP DUP3 DUP6 DUP7 MULMOD SWAP2 POP DUP3 DUP3 DUP7 MULMOD SWAP2 POP DUP3 DUP3 DUP6 MULMOD SWAP4 POP DUP3 DUP5 DUP7 MULMOD SWAP5 POP DUP3 DUP6 DUP7 MULMOD SWAP2 POP DUP3 DUP3 DUP4 MULMOD SWAP2 POP DUP3 DUP3 DUP6 MULMOD SWAP4 POP DUP3 DUP5 DUP7 MULMOD SWAP5 POP DUP3 DUP6 DUP7 MULMOD SWAP2 POP DUP3 DUP3 DUP6 MULMOD SWAP4 POP DUP3 DUP5 DUP7 MULMOD SWAP5 POP DUP3 DUP6 DUP6 MULMOD SWAP4 POP DUP3 DUP5 DUP6 MULMOD SWAP2 POP DUP3 DUP3 DUP6 MULMOD SWAP2 POP DUP3 DUP3 DUP7 MULMOD SWAP5 POP DUP3 DUP6 DUP6 MULMOD SWAP4 POP DUP3 DUP5 DUP6 MULMOD SWAP2 POP DUP3 DUP3 DUP6 MULMOD SWAP2 POP DUP3 DUP3 DUP4 MULMOD SWAP2 POP DUP3 DUP3 DUP4 MULMOD SWAP2 POP DUP3 DUP3 DUP7 MULMOD SWAP5 POP DUP3 DUP6 DUP7 MULMOD SWAP2 POP DUP3 DUP3 DUP4 MULMOD SWAP2 POP DUP3 DUP3 DUP4 MULMOD SWAP2 POP DUP3 DUP3 DUP7 MULMOD SWAP2 POP DUP3 DUP3 DUP6 MULMOD SWAP4 POP DUP3 DUP5 DUP7 MULMOD SWAP5 POP DUP3 DUP6 DUP7 MULMOD SWAP2 POP DUP3 DUP3 DUP7 MULMOD SWAP1 POP DUP3 DUP2 DUP3 MULMOD SWAP1 POP DUP3 DUP2 DUP3 MULMOD SWAP1 POP DUP3 DUP2 DUP4 MULMOD SWAP2 POP DUP3 DUP3 DUP6 MULMOD SWAP4 POP DUP3 DUP5 DUP6 MULMOD SWAP2 POP DUP3 DUP3 DUP7 MULMOD SWAP5 POP DUP3 DUP6 DUP6 MULMOD SWAP4 POP DUP3 DUP5 DUP7 MULMOD SWAP5 POP DUP3 DUP6 DUP6 MULMOD SWAP4 POP DUP3 DUP5 DUP7 MULMOD SWAP5 POP DUP3 DUP6 DUP6 MULMOD SWAP4 POP DUP3 DUP5 DUP6 MULMOD SWAP2 POP DUP3 DUP3 DUP6 MULMOD SWAP1 POP DUP3 DUP2 DUP6 MULMOD SWAP2 POP DUP3 DUP3 DUP4 MULMOD SWAP2 POP DUP3 DUP3 DUP4 MULMOD SWAP2 POP DUP3 DUP3 DUP3 MULMOD SWAP2 POP POP DUP2 DUP2 DUP6 MULMOD SWAP4 POP DUP2 DUP5 DUP5 MULMOD SWAP3 POP DUP2 DUP4 DUP6 MULMOD SWAP4 POP DUP2 DUP5 DUP5 MULMOD SWAP3 POP DUP2 DUP4 DUP6 MULMOD SWAP4 POP DUP2 DUP5 DUP6 MULMOD SWAP1 POP DUP2 DUP2 DUP6 MULMOD SWAP1 POP DUP2 DUP2 DUP5 MULMOD SWAP3 POP POP DUP1 DUP3 DUP5 MULMOD SWAP3 POP DUP1 DUP4 DUP5 MULMOD SWAP3 POP DUP1 DUP4 DUP5 MULMOD SWAP3 POP DUP1 DUP4 DUP5 MULMOD SWAP3 POP DUP1 DUP4 DUP5 MULMOD SWAP3 POP DUP1 DUP4 DUP5 MULMOD SWAP3 POP DUP1 DUP4 DUP5 MULMOD SWAP3 POP DUP1 DUP4 DUP5 MULMOD SWAP3 POP DUP1 DUP4 DUP5 MULMOD SWAP3 POP DUP1 DUP4 DUP5 MULMOD SWAP3 POP DUP1 DUP4 DUP5 MULMOD SWAP3 POP DUP1 DUP4 DUP5 MULMOD SWAP3 POP DUP1 DUP4 DUP5 MULMOD SWAP3 POP DUP1 DUP4 DUP5 MULMOD SWAP3 POP DUP1 DUP4 DUP5 MULMOD SWAP3 POP DUP1 DUP4 DUP5 MULMOD SWAP3 POP DUP1 DUP4 DUP5 MULMOD SWAP3 POP DUP1 DUP4 DUP5 MULMOD SWAP3 POP DUP1 DUP4 DUP5 MULMOD SWAP3 POP DUP1 DUP4 DUP5 MULMOD SWAP3 POP DUP1 DUP4 DUP5 MULMOD SWAP3 POP DUP1 DUP4 DUP5 MULMOD SWAP3 POP DUP1 DUP4 DUP5 MULMOD SWAP3 POP DUP1 DUP4 DUP5 MULMOD SWAP3 POP DUP1 DUP4 DUP5 MULMOD SWAP3 POP DUP1 DUP4 DUP5 MULMOD SWAP3 POP DUP1 DUP4 DUP5 MULMOD SWAP3 POP DUP1 DUP4 DUP5 MULMOD SWAP3 POP DUP1 DUP4 DUP5 MULMOD SWAP3 POP DUP1 DUP4 DUP5 MULMOD SWAP3 POP DUP1 DUP4 DUP5 MULMOD SWAP3 POP DUP1 DUP4 DUP5 MULMOD SWAP3 POP DUP1 DUP4 DUP5 MULMOD SWAP3 POP DUP1 DUP4 DUP5 MULMOD SWAP3 POP DUP1 DUP4 DUP5 MULMOD SWAP3 POP DUP1 DUP4 DUP5 MULMOD SWAP3 POP DUP1 DUP4 DUP5 MULMOD SWAP3 POP DUP1 DUP4 DUP5 MULMOD SWAP3 POP DUP1 DUP4 DUP5 MULMOD SWAP3 POP DUP1 DUP4 DUP5 MULMOD SWAP3 POP DUP1 DUP4 DUP5 MULMOD SWAP3 POP DUP1 DUP4 DUP5 MULMOD SWAP3 POP DUP1 DUP4 DUP5 MULMOD SWAP3 POP DUP1 DUP4 DUP5 MULMOD SWAP3 POP DUP1 DUP4 DUP5 MULMOD SWAP3 POP DUP1 DUP4 DUP5 MULMOD SWAP3 POP DUP1 DUP4 DUP5 MULMOD SWAP3 POP DUP1 DUP4 DUP5 MULMOD SWAP3 POP DUP1 DUP4 DUP5 MULMOD SWAP3 POP DUP1 DUP4 DUP5 MULMOD SWAP3 POP DUP1 DUP4 DUP5 MULMOD SWAP3 POP DUP1 DUP4 DUP5 MULMOD SWAP3 POP DUP1 DUP4 DUP5 MULMOD SWAP3 POP DUP1 DUP4 DUP5 MULMOD SWAP3 POP DUP1 DUP4 DUP5 MULMOD SWAP3 POP DUP1 DUP4 DUP5 MULMOD SWAP3 POP DUP1 DUP4 DUP5 MULMOD SWAP3 POP DUP1 DUP4 DUP5 MULMOD SWAP3 POP DUP1 DUP4 DUP5 MULMOD SWAP3 POP DUP1 DUP4 DUP5 MULMOD SWAP3 POP DUP1 DUP4 DUP5 MULMOD SWAP3 POP DUP1 DUP4 DUP5 MULMOD SWAP3 POP DUP1 DUP4 DUP5 MULMOD SWAP3 POP DUP1 DUP4 DUP5 MULMOD SWAP3 POP DUP1 DUP4 DUP5 MULMOD SWAP3 POP DUP1 DUP4 DUP5 MULMOD SWAP3 POP DUP1 DUP4 DUP5 MULMOD SWAP3 POP DUP1 DUP4 DUP5 MULMOD SWAP3 POP DUP1 DUP4 DUP5 MULMOD SWAP3 POP DUP1 DUP4 DUP5 MULMOD SWAP3 POP DUP1 DUP4 DUP5 MULMOD SWAP3 POP DUP1 DUP4 DUP5 MULMOD SWAP3 POP DUP1 DUP4 DUP5 MULMOD SWAP3 POP DUP1 DUP4 DUP5 MULMOD SWAP3 POP DUP1 DUP4 DUP5 MULMOD SWAP3 POP DUP1 DUP4 DUP5 MULMOD SWAP3 POP DUP1 DUP4 DUP5 MULMOD SWAP3 POP DUP1 DUP4 DUP5 MULMOD SWAP3 POP DUP1 DUP4 DUP5 MULMOD SWAP3 POP DUP1 DUP4 DUP5 MULMOD SWAP3 POP DUP1 DUP4 DUP5 MULMOD SWAP3 POP DUP1 DUP4 DUP5 MULMOD SWAP3 POP DUP1 DUP4 DUP5 MULMOD SWAP3 POP DUP1 DUP4 DUP5 MULMOD SWAP3 POP DUP1 DUP4 DUP5 MULMOD SWAP3 POP DUP1 DUP4 DUP5 MULMOD SWAP3 POP DUP1 DUP4 DUP5 MULMOD SWAP3 POP DUP1 DUP4 DUP5 MULMOD SWAP3 POP DUP1 DUP4 DUP5 MULMOD SWAP3 POP DUP1 DUP4 DUP5 MULMOD SWAP3 POP DUP1 DUP4 DUP5 MULMOD SWAP3 POP DUP1 DUP4 DUP5 MULMOD SWAP3 POP DUP1 DUP4 DUP5 MULMOD SWAP3 POP DUP1 DUP4 DUP5 MULMOD SWAP3 POP DUP1 DUP4 DUP5 MULMOD SWAP3 POP DUP1 DUP4 DUP5 MULMOD SWAP3 POP DUP1 DUP4 DUP5 MULMOD SWAP3 POP DUP1 DUP4 DUP5 MULMOD SWAP3 POP DUP1 DUP4 DUP5 MULMOD SWAP3 POP DUP1 DUP4 DUP5 MULMOD SWAP3 POP DUP1 DUP4 DUP5 MULMOD SWAP3 POP DUP1 DUP4 DUP5 MULMOD SWAP3 POP DUP1 DUP4 DUP5 MULMOD SWAP3 POP DUP1 DUP4 DUP5 MULMOD SWAP3 POP DUP1 DUP4 DUP5 MULMOD SWAP3 POP DUP1 DUP4 DUP5 MULMOD SWAP3 POP DUP1 DUP4 DUP5 MULMOD SWAP3 POP DUP1 DUP4 DUP5 MULMOD SWAP3 POP DUP1 DUP4 DUP5 MULMOD SWAP3 POP DUP1 DUP4 DUP5 MULMOD SWAP3 POP DUP1 DUP4 DUP5 MULMOD SWAP3 POP DUP1 DUP4 DUP5 MULMOD SWAP3 POP DUP1 DUP4 DUP5 MULMOD SWAP3 POP DUP1 DUP4 DUP5 MULMOD SWAP3 POP DUP1 DUP4 DUP5 MULMOD SWAP3 POP DUP1 DUP4 DUP5 MULMOD SWAP3 POP DUP1 DUP4 DUP5 MULMOD SWAP3 POP DUP1 DUP4 DUP5 MULMOD SWAP3 POP DUP1 DUP4 DUP5 MULMOD SWAP3 POP DUP1 DUP4 DUP5 MULMOD SWAP3 POP DUP1 DUP4 DUP5 MULMOD SWAP3 POP DUP1 DUP4 DUP5 MULMOD SWAP3 POP DUP1 DUP4 DUP5 MULMOD SWAP3 POP DUP1 DUP4 DUP5 MULMOD SWAP3 POP DUP1 DUP4 DUP5 MULMOD SWAP3 POP DUP1 DUP4 DUP5 MULMOD SWAP3 POP DUP1 DUP4 DUP5 MULMOD SWAP3 POP DUP1 DUP4 DUP4 MULMOD SWAP4 SWAP3 POP POP POP JUMP JUMPDEST PUSH2 0x21F4 DUP6 DUP6 DUP6 DUP6 PUSH2 0x223B JUMP JUMPDEST PUSH1 0x1 PUSH1 0x1 PUSH1 0xA0 SHL SUB DUP5 AND ISZERO PUSH2 0x1793 JUMPI DUP3 MLOAD CALLER SWAP1 PUSH1 0x1 SUB PUSH2 0x222D JUMPI PUSH1 0x20 DUP5 DUP2 ADD MLOAD SWAP1 DUP5 ADD MLOAD PUSH2 0x2226 DUP4 DUP10 DUP10 DUP6 DUP6 DUP10 PUSH2 0x244A JUMP JUMPDEST POP POP PUSH2 0x784 JUMP JUMPDEST PUSH2 0x784 DUP2 DUP8 DUP8 DUP8 DUP8 DUP8 PUSH2 0x256B JUMP JUMPDEST DUP1 MLOAD DUP3 MLOAD EQ PUSH2 0x226A JUMPI DUP2 MLOAD DUP2 MLOAD PUSH1 0x40 MLOAD PUSH4 0x5B059991 PUSH1 0xE0 SHL DUP2 MSTORE PUSH1 0x4 DUP2 ADD SWAP3 SWAP1 SWAP3 MSTORE PUSH1 0x24 DUP3 ADD MSTORE PUSH1 0x44 ADD PUSH2 0x36B JUMP JUMPDEST CALLER PUSH0 JUMPDEST DUP4 MLOAD DUP2 LT ISZERO PUSH2 0x236C JUMPI PUSH1 0x20 DUP2 DUP2 MUL DUP6 DUP2 ADD DUP3 ADD MLOAD SWAP1 DUP6 ADD SWAP1 SWAP2 ADD MLOAD PUSH1 0x1 PUSH1 0x1 PUSH1 0xA0 SHL SUB DUP9 AND ISZERO PUSH2 0x231E JUMPI PUSH0 DUP3 DUP2 MSTORE PUSH1 0x20 DUP2 DUP2 MSTORE PUSH1 0x40 DUP1 DUP4 KECCAK256 PUSH1 0x1 PUSH1 0x1 PUSH1 0xA0 SHL SUB DUP13 AND DUP5 MSTORE SWAP1 SWAP2 MSTORE SWAP1 KECCAK256 SLOAD DUP2 DUP2 LT ISZERO PUSH2 0x22F8 JUMPI PUSH1 0x40 MLOAD PUSH4 0x3DEE4C5 PUSH1 0xE0 SHL DUP2 MSTORE PUSH1 0x1 PUSH1 0x1 PUSH1 0xA0 SHL SUB DUP11 AND PUSH1 0x4 DUP3 ADD MSTORE PUSH1 0x24 DUP2 ADD DUP3 SWAP1 MSTORE PUSH1 0x44 DUP2 ADD DUP4 SWAP1 MSTORE PUSH1 0x64 DUP2 ADD DUP5 SWAP1 MSTORE PUSH1 0x84 ADD PUSH2 0x36B JUMP JUMPDEST PUSH0 DUP4 DUP2 MSTORE PUSH1 0x20 DUP2 DUP2 MSTORE PUSH1 0x40 DUP1 DUP4 KECCAK256 PUSH1 0x1 PUSH1 0x1 PUSH1 0xA0 SHL SUB DUP14 AND DUP5 MSTORE SWAP1 SWAP2 MSTORE SWAP1 KECCAK256 SWAP1 DUP3 SWAP1 SUB SWAP1 SSTORE JUMPDEST PUSH1 0x1 PUSH1 0x1 PUSH1 0xA0 SHL SUB DUP8 AND ISZERO PUSH2 0x2362 JUMPI PUSH0 DUP3 DUP2 MSTORE PUSH1 0x20 DUP2 DUP2 MSTORE PUSH1 0x40 DUP1 DUP4 KECCAK256 PUSH1 0x1 PUSH1 0x1 PUSH1 0xA0 SHL SUB DUP12 AND DUP5 MSTORE SWAP1 SWAP2 MSTORE DUP2 KECCAK256 DUP1 SLOAD DUP4 SWAP3 SWAP1 PUSH2 0x235C SWAP1 DUP5 SWAP1 PUSH2 0x2DB2 JUMP JUMPDEST SWAP1 SWAP2 SSTORE POP POP JUMPDEST POP POP PUSH1 0x1 ADD PUSH2 0x226D JUMP JUMPDEST POP DUP3 MLOAD PUSH1 0x1 SUB PUSH2 0x23EC JUMPI PUSH1 0x20 DUP4 ADD MLOAD PUSH0 SWAP1 PUSH1 0x20 DUP5 ADD MLOAD SWAP1 SWAP2 POP DUP6 PUSH1 0x1 PUSH1 0x1 PUSH1 0xA0 SHL SUB AND DUP8 PUSH1 0x1 PUSH1 0x1 PUSH1 0xA0 SHL SUB AND DUP5 PUSH1 0x1 PUSH1 0x1 PUSH1 0xA0 SHL SUB AND PUSH32 0xC3D58168C5AE7397731D063D5BBF3D657854427343F4C083240F7AACAA2D0F62 DUP6 DUP6 PUSH1 0x40 MLOAD PUSH2 0x23DD SWAP3 SWAP2 SWAP1 SWAP2 DUP3 MSTORE PUSH1 0x20 DUP3 ADD MSTORE PUSH1 0x40 ADD SWAP1 JUMP JUMPDEST PUSH1 0x40 MLOAD DUP1 SWAP2 SUB SWAP1 LOG4 POP POP PUSH2 0x1793 JUMP JUMPDEST DUP4 PUSH1 0x1 PUSH1 0x1 PUSH1 0xA0 SHL SUB AND DUP6 PUSH1 0x1 PUSH1 0x1 PUSH1 0xA0 SHL SUB AND DUP3 PUSH1 0x1 PUSH1 0x1 PUSH1 0xA0 SHL SUB AND PUSH32 0x4A39DC06D4C0DBC64B70AF90FD698A233A518AA5D07E595D983B8C0526C8F7FB DUP7 DUP7 PUSH1 0x40 MLOAD PUSH2 0x243B SWAP3 SWAP2 SWAP1 PUSH2 0x2FA2 JUMP JUMPDEST PUSH1 0x40 MLOAD DUP1 SWAP2 SUB SWAP1 LOG4 POP POP POP POP POP JUMP JUMPDEST PUSH1 0x1 PUSH1 0x1 PUSH1 0xA0 SHL SUB DUP5 AND EXTCODESIZE ISZERO PUSH2 0x784 JUMPI PUSH1 0x40 MLOAD PUSH4 0xF23A6E61 PUSH1 0xE0 SHL DUP2 MSTORE PUSH1 0x1 PUSH1 0x1 PUSH1 0xA0 SHL SUB DUP6 AND SWAP1 PUSH4 0xF23A6E61 SWAP1 PUSH2 0x248E SWAP1 DUP10 SWAP1 DUP10 SWAP1 DUP9 SWAP1 DUP9 SWAP1 DUP9 SWAP1 PUSH1 0x4 ADD PUSH2 0x2FCF JUMP JUMPDEST PUSH1 0x20 PUSH1 0x40 MLOAD DUP1 DUP4 SUB DUP2 PUSH0 DUP8 GAS CALL SWAP3 POP POP POP DUP1 ISZERO PUSH2 0x24C8 JUMPI POP PUSH1 0x40 DUP1 MLOAD PUSH1 0x1F RETURNDATASIZE SWAP1 DUP2 ADD PUSH1 0x1F NOT AND DUP3 ADD SWAP1 SWAP3 MSTORE PUSH2 0x24C5 SWAP2 DUP2 ADD SWAP1 PUSH2 0x3013 JUMP JUMPDEST PUSH1 0x1 JUMPDEST PUSH2 0x252F JUMPI RETURNDATASIZE DUP1 DUP1 ISZERO PUSH2 0x24F5 JUMPI PUSH1 0x40 MLOAD SWAP2 POP PUSH1 0x1F NOT PUSH1 0x3F RETURNDATASIZE ADD AND DUP3 ADD PUSH1 0x40 MSTORE RETURNDATASIZE DUP3 MSTORE RETURNDATASIZE PUSH0 PUSH1 0x20 DUP5 ADD RETURNDATACOPY PUSH2 0x24FA JUMP JUMPDEST PUSH1 0x60 SWAP2 POP JUMPDEST POP DUP1 MLOAD PUSH0 SUB PUSH2 0x2527 JUMPI PUSH1 0x40 MLOAD PUSH4 0x2BFA23E7 PUSH1 0xE1 SHL DUP2 MSTORE PUSH1 0x1 PUSH1 0x1 PUSH1 0xA0 SHL SUB DUP7 AND PUSH1 0x4 DUP3 ADD MSTORE PUSH1 0x24 ADD PUSH2 0x36B JUMP JUMPDEST DUP1 MLOAD DUP2 PUSH1 0x20 ADD REVERT JUMPDEST PUSH1 0x1 PUSH1 0x1 PUSH1 0xE0 SHL SUB NOT DUP2 AND PUSH4 0xF23A6E61 PUSH1 0xE0 SHL EQ PUSH2 0x1A3C JUMPI PUSH1 0x40 MLOAD PUSH4 0x2BFA23E7 PUSH1 0xE1 SHL DUP2 MSTORE PUSH1 0x1 PUSH1 0x1 PUSH1 0xA0 SHL SUB DUP7 AND PUSH1 0x4 DUP3 ADD MSTORE PUSH1 0x24 ADD PUSH2 0x36B JUMP JUMPDEST PUSH1 0x1 PUSH1 0x1 PUSH1 0xA0 SHL SUB DUP5 AND EXTCODESIZE ISZERO PUSH2 0x784 JUMPI PUSH1 0x40 MLOAD PUSH4 0xBC197C81 PUSH1 0xE0 SHL DUP2 MSTORE PUSH1 0x1 PUSH1 0x1 PUSH1 0xA0 SHL SUB DUP6 AND SWAP1 PUSH4 0xBC197C81 SWAP1 PUSH2 0x25AF SWAP1 DUP10 SWAP1 DUP10 SWAP1 DUP9 SWAP1 DUP9 SWAP1 DUP9 SWAP1 PUSH1 0x4 ADD PUSH2 0x302E JUMP JUMPDEST PUSH1 0x20 PUSH1 0x40 MLOAD DUP1 DUP4 SUB DUP2 PUSH0 DUP8 GAS CALL SWAP3 POP POP POP DUP1 ISZERO PUSH2 0x25E9 JUMPI POP PUSH1 0x40 DUP1 MLOAD PUSH1 0x1F RETURNDATASIZE SWAP1 DUP2 ADD PUSH1 0x1F NOT AND DUP3 ADD SWAP1 SWAP3 MSTORE PUSH2 0x25E6 SWAP2 DUP2 ADD SWAP1 PUSH2 0x3013 JUMP JUMPDEST PUSH1 0x1 JUMPDEST PUSH2 0x2616 JUMPI RETURNDATASIZE DUP1 DUP1 ISZERO PUSH2 0x24F5 JUMPI PUSH1 0x40 MLOAD SWAP2 POP PUSH1 0x1F NOT PUSH1 0x3F RETURNDATASIZE ADD AND DUP3 ADD PUSH1 0x40 MSTORE RETURNDATASIZE DUP3 MSTORE RETURNDATASIZE PUSH0 PUSH1 0x20 DUP5 ADD RETURNDATACOPY PUSH2 0x24FA JUMP JUMPDEST PUSH1 0x1 PUSH1 0x1 PUSH1 0xE0 SHL SUB NOT DUP2 AND PUSH4 0xBC197C81 PUSH1 0xE0 SHL EQ PUSH2 0x1A3C JUMPI PUSH1 0x40 MLOAD PUSH4 0x2BFA23E7 PUSH1 0xE1 SHL DUP2 MSTORE PUSH1 0x1 PUSH1 0x1 PUSH1 0xA0 SHL SUB DUP7 AND PUSH1 0x4 DUP3 ADD MSTORE PUSH1 0x24 ADD PUSH2 0x36B JUMP JUMPDEST DUP3 DUP1 SLOAD DUP3 DUP3 SSTORE SWAP1 PUSH0 MSTORE PUSH1 0x20 PUSH0 KECCAK256 SWAP1 DUP2 ADD SWAP3 DUP3 ISZERO PUSH2 0x268B JUMPI SWAP2 PUSH1 0x20 MUL DUP3 ADD JUMPDEST DUP3 DUP2 GT ISZERO PUSH2 0x268B JUMPI DUP3 MLOAD DUP3 SSTORE SWAP2 PUSH1 0x20 ADD SWAP2 SWAP1 PUSH1 0x1 ADD SWAP1 PUSH2 0x2670 JUMP JUMPDEST POP PUSH2 0x2697 SWAP3 SWAP2 POP PUSH2 0x269B JUMP JUMPDEST POP SWAP1 JUMP JUMPDEST JUMPDEST DUP1 DUP3 GT ISZERO PUSH2 0x2697 JUMPI PUSH0 DUP2 SSTORE PUSH1 0x1 ADD PUSH2 0x269C JUMP JUMPDEST PUSH1 0x1 PUSH1 0x1 PUSH1 0xA0 SHL SUB DUP2 AND DUP2 EQ PUSH2 0x26C3 JUMPI PUSH0 PUSH0 REVERT JUMPDEST POP JUMP JUMPDEST PUSH0 PUSH0 PUSH1 0x40 DUP4 DUP6 SUB SLT ISZERO PUSH2 0x26D7 JUMPI PUSH0 PUSH0 REVERT JUMPDEST DUP3 CALLDATALOAD PUSH2 0x26E2 DUP2 PUSH2 0x26AF JUMP JUMPDEST SWAP5 PUSH1 0x20 SWAP4 SWAP1 SWAP4 ADD CALLDATALOAD SWAP4 POP POP POP JUMP JUMPDEST PUSH0 PUSH0 DUP4 PUSH1 0x1F DUP5 ADD SLT PUSH2 0x2700 JUMPI PUSH0 PUSH0 REVERT JUMPDEST POP DUP2 CALLDATALOAD PUSH1 0x1 PUSH1 0x1 PUSH1 0x40 SHL SUB DUP2 GT ISZERO PUSH2 0x2716 JUMPI PUSH0 PUSH0 REVERT JUMPDEST PUSH1 0x20 DUP4 ADD SWAP2 POP DUP4 PUSH1 0x20 DUP3 PUSH1 0x5 SHL DUP6 ADD ADD GT ISZERO PUSH2 0x2730 JUMPI PUSH0 PUSH0 REVERT JUMPDEST SWAP3 POP SWAP3 SWAP1 POP JUMP JUMPDEST PUSH0 PUSH0 PUSH0 PUSH0 PUSH0 PUSH1 0x80 DUP7 DUP9 SUB SLT ISZERO PUSH2 0x274B JUMPI PUSH0 PUSH0 REVERT JUMPDEST DUP6 CALLDATALOAD PUSH2 0x2756 DUP2 PUSH2 0x26AF JUMP JUMPDEST SWAP5 POP PUSH1 0x20 DUP7 ADD CALLDATALOAD SWAP4 POP PUSH1 0x40 DUP7 ADD CALLDATALOAD SWAP3 POP PUSH1 0x60 DUP7 ADD CALLDATALOAD PUSH1 0x1 PUSH1 0x1 PUSH1 0x40 SHL SUB DUP2 GT ISZERO PUSH2 0x277E JUMPI PUSH0 PUSH0 REVERT JUMPDEST PUSH2 0x278A DUP9 DUP3 DUP10 ADD PUSH2 0x26F0 JUMP JUMPDEST SWAP7 SWAP10 SWAP6 SWAP9 POP SWAP4 SWAP7 POP SWAP3 SWAP5 SWAP4 SWAP3 POP POP POP JUMP JUMPDEST PUSH1 0x1 PUSH1 0x1 PUSH1 0xE0 SHL SUB NOT DUP2 AND DUP2 EQ PUSH2 0x26C3 JUMPI PUSH0 PUSH0 REVERT JUMPDEST PUSH0 PUSH1 0x20 DUP3 DUP5 SUB SLT ISZERO PUSH2 0x27C0 JUMPI PUSH0 PUSH0 REVERT JUMPDEST DUP2 CALLDATALOAD PUSH2 0x797 DUP2 PUSH2 0x279B JUMP JUMPDEST PUSH0 PUSH0 PUSH1 0x40 DUP4 DUP6 SUB SLT ISZERO PUSH2 0x27DC JUMPI PUSH0 PUSH0 REVERT JUMPDEST POP POP DUP1 CALLDATALOAD SWAP3 PUSH1 0x20 SWAP1 SWAP2 ADD CALLDATALOAD SWAP2 POP JUMP JUMPDEST PUSH0 PUSH1 0x20 DUP3 DUP5 SUB SLT ISZERO PUSH2 0x27FB JUMPI PUSH0 PUSH0 REVERT JUMPDEST POP CALLDATALOAD SWAP2 SWAP1 POP JUMP JUMPDEST PUSH0 DUP2 MLOAD DUP1 DUP5 MSTORE DUP1 PUSH1 0x20 DUP5 ADD PUSH1 0x20 DUP7 ADD MCOPY PUSH0 PUSH1 0x20 DUP3 DUP7 ADD ADD MSTORE PUSH1 0x20 PUSH1 0x1F NOT PUSH1 0x1F DUP4 ADD AND DUP6 ADD ADD SWAP2 POP POP SWAP3 SWAP2 POP POP JUMP JUMPDEST PUSH1 0x20 DUP2 MSTORE PUSH0 PUSH2 0x797 PUSH1 0x20 DUP4 ADD DUP5 PUSH2 0x2802 JUMP JUMPDEST PUSH4 0x4E487B71 PUSH1 0xE0 SHL PUSH0 MSTORE PUSH1 0x41 PUSH1 0x4 MSTORE PUSH1 0x24 PUSH0 REVERT JUMPDEST PUSH1 0x40 MLOAD PUSH1 0x1F DUP3 ADD PUSH1 0x1F NOT AND DUP2 ADD PUSH1 0x1 PUSH1 0x1 PUSH1 0x40 SHL SUB DUP2 GT DUP3 DUP3 LT OR ISZERO PUSH2 0x287E JUMPI PUSH2 0x287E PUSH2 0x2842 JUMP JUMPDEST PUSH1 0x40 MSTORE SWAP2 SWAP1 POP JUMP JUMPDEST PUSH0 PUSH1 0x1 PUSH1 0x1 PUSH1 0x40 SHL SUB DUP3 GT ISZERO PUSH2 0x289E JUMPI PUSH2 0x289E PUSH2 0x2842 JUMP JUMPDEST POP PUSH1 0x5 SHL PUSH1 0x20 ADD SWAP1 JUMP JUMPDEST PUSH0 DUP3 PUSH1 0x1F DUP4 ADD SLT PUSH2 0x28B7 JUMPI PUSH0 PUSH0 REVERT JUMPDEST DUP2 CALLDATALOAD PUSH2 0x28CA PUSH2 0x28C5 DUP3 PUSH2 0x2886 JUMP JUMPDEST PUSH2 0x2856 JUMP JUMPDEST DUP1 DUP3 DUP3 MSTORE PUSH1 0x20 DUP3 ADD SWAP2 POP PUSH1 0x20 DUP4 PUSH1 0x5 SHL DUP7 ADD ADD SWAP3 POP DUP6 DUP4 GT ISZERO PUSH2 0x28EB JUMPI PUSH0 PUSH0 REVERT JUMPDEST PUSH1 0x20 DUP6 ADD JUMPDEST DUP4 DUP2 LT ISZERO PUSH2 0x2908 JUMPI DUP1 CALLDATALOAD DUP4 MSTORE PUSH1 0x20 SWAP3 DUP4 ADD SWAP3 ADD PUSH2 0x28F0 JUMP JUMPDEST POP SWAP6 SWAP5 POP POP POP POP POP JUMP JUMPDEST PUSH0 DUP3 PUSH1 0x1F DUP4 ADD SLT PUSH2 0x2921 JUMPI PUSH0 PUSH0 REVERT JUMPDEST DUP2 CALLDATALOAD PUSH1 0x1 PUSH1 0x1 PUSH1 0x40 SHL SUB DUP2 GT ISZERO PUSH2 0x293A JUMPI PUSH2 0x293A PUSH2 0x2842 JUMP JUMPDEST PUSH2 0x294D PUSH1 0x1F DUP3 ADD PUSH1 0x1F NOT AND PUSH1 0x20 ADD PUSH2 0x2856 JUMP JUMPDEST DUP2 DUP2 MSTORE DUP5 PUSH1 0x20 DUP4 DUP7 ADD ADD GT ISZERO PUSH2 0x2961 JUMPI PUSH0 PUSH0 REVERT JUMPDEST DUP2 PUSH1 0x20 DUP6 ADD PUSH1 0x20 DUP4 ADD CALLDATACOPY PUSH0 SWAP2 DUP2 ADD PUSH1 0x20 ADD SWAP2 SWAP1 SWAP2 MSTORE SWAP4 SWAP3 POP POP POP JUMP JUMPDEST PUSH0 PUSH0 PUSH0 PUSH0 PUSH0 PUSH1 0xA0 DUP7 DUP9 SUB SLT ISZERO PUSH2 0x2991 JUMPI PUSH0 PUSH0 REVERT JUMPDEST DUP6 CALLDATALOAD PUSH2 0x299C DUP2 PUSH2 0x26AF JUMP JUMPDEST SWAP5 POP PUSH1 0x20 DUP7 ADD CALLDATALOAD PUSH2 0x29AC DUP2 PUSH2 0x26AF JUMP JUMPDEST SWAP4 POP PUSH1 0x40 DUP7 ADD CALLDATALOAD PUSH1 0x1 PUSH1 0x1 PUSH1 0x40 SHL SUB DUP2 GT ISZERO PUSH2 0x29C6 JUMPI PUSH0 PUSH0 REVERT JUMPDEST PUSH2 0x29D2 DUP9 DUP3 DUP10 ADD PUSH2 0x28A8 JUMP JUMPDEST SWAP4 POP POP PUSH1 0x60 DUP7 ADD CALLDATALOAD PUSH1 0x1 PUSH1 0x1 PUSH1 0x40 SHL SUB DUP2 GT ISZERO PUSH2 0x29ED JUMPI PUSH0 PUSH0 REVERT JUMPDEST PUSH2 0x29F9 DUP9 DUP3 DUP10 ADD PUSH2 0x28A8 JUMP JUMPDEST SWAP3 POP POP PUSH1 0x80 DUP7 ADD CALLDATALOAD PUSH1 0x1 PUSH1 0x1 PUSH1 0x40 SHL SUB DUP2 GT ISZERO PUSH2 0x2A14 JUMPI PUSH0 PUSH0 REVERT JUMPDEST PUSH2 0x2A20 DUP9 DUP3 DUP10 ADD PUSH2 0x2912 JUMP JUMPDEST SWAP2 POP POP SWAP3 SWAP6 POP SWAP3 SWAP6 SWAP1 SWAP4 POP JUMP JUMPDEST PUSH0 PUSH0 PUSH1 0x40 DUP4 DUP6 SUB SLT ISZERO PUSH2 0x2A3E JUMPI PUSH0 PUSH0 REVERT JUMPDEST DUP3 CALLDATALOAD PUSH1 0x1 PUSH1 0x1 PUSH1 0x40 SHL SUB DUP2 GT ISZERO PUSH2 0x2A53 JUMPI PUSH0 PUSH0 REVERT JUMPDEST DUP4 ADD PUSH1 0x1F DUP2 ADD DUP6 SGT PUSH2 0x2A63 JUMPI PUSH0 PUSH0 REVERT JUMPDEST DUP1 CALLDATALOAD PUSH2 0x2A71 PUSH2 0x28C5 DUP3 PUSH2 0x2886 JUMP JUMPDEST DUP1 DUP3 DUP3 MSTORE PUSH1 0x20 DUP3 ADD SWAP2 POP PUSH1 0x20 DUP4 PUSH1 0x5 SHL DUP6 ADD ADD SWAP3 POP DUP8 DUP4 GT ISZERO PUSH2 0x2A92 JUMPI PUSH0 PUSH0 REVERT JUMPDEST PUSH1 0x20 DUP5 ADD SWAP4 POP JUMPDEST DUP3 DUP5 LT ISZERO PUSH2 0x2ABD JUMPI DUP4 CALLDATALOAD PUSH2 0x2AAC DUP2 PUSH2 0x26AF JUMP JUMPDEST DUP3 MSTORE PUSH1 0x20 SWAP4 DUP5 ADD SWAP4 SWAP1 SWAP2 ADD SWAP1 PUSH2 0x2A99 JUMP JUMPDEST SWAP5 POP POP POP POP PUSH1 0x20 DUP4 ADD CALLDATALOAD PUSH1 0x1 PUSH1 0x1 PUSH1 0x40 SHL SUB DUP2 GT ISZERO PUSH2 0x2ADA JUMPI PUSH0 PUSH0 REVERT JUMPDEST PUSH2 0x2AE6 DUP6 DUP3 DUP7 ADD PUSH2 0x28A8 JUMP JUMPDEST SWAP2 POP POP SWAP3 POP SWAP3 SWAP1 POP JUMP JUMPDEST PUSH0 DUP2 MLOAD DUP1 DUP5 MSTORE PUSH1 0x20 DUP5 ADD SWAP4 POP PUSH1 0x20 DUP4 ADD PUSH0 JUMPDEST DUP3 DUP2 LT ISZERO PUSH2 0x2B20 JUMPI DUP2 MLOAD DUP7 MSTORE PUSH1 0x20 SWAP6 DUP7 ADD SWAP6 SWAP1 SWAP2 ADD SWAP1 PUSH1 0x1 ADD PUSH2 0x2B02 JUMP JUMPDEST POP SWAP4 SWAP5 SWAP4 POP POP POP POP JUMP JUMPDEST PUSH1 0x20 DUP2 MSTORE PUSH0 PUSH2 0x797 PUSH1 0x20 DUP4 ADD DUP5 PUSH2 0x2AF0 JUMP JUMPDEST PUSH0 PUSH0 PUSH0 PUSH0 PUSH0 PUSH0 PUSH1 0xA0 DUP8 DUP10 SUB SLT ISZERO PUSH2 0x2B51 JUMPI PUSH0 PUSH0 REVERT JUMPDEST DUP7 CALLDATALOAD PUSH2 0x2B5C DUP2 PUSH2 0x26AF JUMP JUMPDEST SWAP6 POP PUSH1 0x20 DUP8 ADD CALLDATALOAD SWAP5 POP PUSH1 0x40 DUP8 ADD CALLDATALOAD SWAP4 POP PUSH1 0x60 DUP8 ADD CALLDATALOAD PUSH1 0x1 PUSH1 0x1 PUSH1 0x40 SHL SUB DUP2 GT ISZERO PUSH2 0x2B84 JUMPI PUSH0 PUSH0 REVERT JUMPDEST PUSH2 0x2B90 DUP10 DUP3 DUP11 ADD PUSH2 0x26F0 JUMP JUMPDEST SWAP8 SWAP11 SWAP7 SWAP10 POP SWAP5 SWAP8 SWAP5 SWAP7 SWAP6 PUSH1 0x80 SWAP1 SWAP6 ADD CALLDATALOAD SWAP5 SWAP4 POP POP POP POP JUMP JUMPDEST PUSH0 PUSH0 PUSH0 PUSH1 0x60 DUP5 DUP7 SUB SLT ISZERO PUSH2 0x2BBA JUMPI PUSH0 PUSH0 REVERT JUMPDEST DUP4 CALLDATALOAD PUSH2 0x2BC5 DUP2 PUSH2 0x26AF JUMP JUMPDEST SWAP6 PUSH1 0x20 DUP6 ADD CALLDATALOAD SWAP6 POP PUSH1 0x40 SWAP1 SWAP5 ADD CALLDATALOAD SWAP4 SWAP3 POP POP POP JUMP JUMPDEST PUSH0 PUSH0 PUSH0 PUSH1 0x60 DUP5 DUP7 SUB SLT ISZERO PUSH2 0x2BEC JUMPI PUSH0 PUSH0 REVERT JUMPDEST POP POP DUP2 CALLDATALOAD SWAP4 PUSH1 0x20 DUP4 ADD CALLDATALOAD SWAP4 POP PUSH1 0x40 SWAP1 SWAP3 ADD CALLDATALOAD SWAP2 SWAP1 POP JUMP JUMPDEST DUP1 ISZERO ISZERO DUP2 EQ PUSH2 0x26C3 JUMPI PUSH0 PUSH0 REVERT JUMPDEST PUSH0 PUSH0 PUSH1 0x40 DUP4 DUP6 SUB SLT ISZERO PUSH2 0x2C21 JUMPI PUSH0 PUSH0 REVERT JUMPDEST DUP3 CALLDATALOAD PUSH2 0x2C2C DUP2 PUSH2 0x26AF JUMP JUMPDEST SWAP2 POP PUSH1 0x20 DUP4 ADD CALLDATALOAD PUSH2 0x2C3C DUP2 PUSH2 0x2C03 JUMP JUMPDEST DUP1 SWAP2 POP POP SWAP3 POP SWAP3 SWAP1 POP JUMP JUMPDEST PUSH0 PUSH0 PUSH0 PUSH1 0x40 DUP5 DUP7 SUB SLT ISZERO PUSH2 0x2C59 JUMPI PUSH0 PUSH0 REVERT JUMPDEST DUP4 CALLDATALOAD SWAP3 POP PUSH1 0x20 DUP5 ADD CALLDATALOAD PUSH1 0x1 PUSH1 0x1 PUSH1 0x40 SHL SUB DUP2 GT ISZERO PUSH2 0x2C75 JUMPI PUSH0 PUSH0 REVERT JUMPDEST PUSH2 0x2C81 DUP7 DUP3 DUP8 ADD PUSH2 0x26F0 JUMP JUMPDEST SWAP5 SWAP8 SWAP1 SWAP7 POP SWAP4 SWAP5 POP POP POP POP JUMP JUMPDEST PUSH0 PUSH0 PUSH1 0x40 DUP4 DUP6 SUB SLT ISZERO PUSH2 0x2C9F JUMPI PUSH0 PUSH0 REVERT JUMPDEST DUP3 CALLDATALOAD PUSH2 0x2CAA DUP2 PUSH2 0x26AF JUMP JUMPDEST SWAP2 POP PUSH1 0x20 DUP4 ADD CALLDATALOAD PUSH2 0x2C3C DUP2 PUSH2 0x26AF JUMP JUMPDEST PUSH0 PUSH0 PUSH0 PUSH0 PUSH0 PUSH1 0xA0 DUP7 DUP9 SUB SLT ISZERO PUSH2 0x2CCE JUMPI PUSH0 PUSH0 REVERT JUMPDEST DUP6 CALLDATALOAD PUSH2 0x2CD9 DUP2 PUSH2 0x26AF JUMP JUMPDEST SWAP5 POP PUSH1 0x20 DUP7 ADD CALLDATALOAD PUSH2 0x2CE9 DUP2 PUSH2 0x26AF JUMP JUMPDEST SWAP4 POP PUSH1 0x40 DUP7 ADD CALLDATALOAD SWAP3 POP PUSH1 0x60 DUP7 ADD CALLDATALOAD SWAP2 POP PUSH1 0x80 DUP7 ADD CALLDATALOAD PUSH1 0x1 PUSH1 0x1 PUSH1 0x40 SHL SUB DUP2 GT ISZERO PUSH2 0x2A14 JUMPI PUSH0 PUSH0 REVERT JUMPDEST PUSH1 0x20 DUP1 DUP3 MSTORE PUSH1 0x1A SWAP1 DUP3 ADD MSTORE PUSH32 0x636F6E646974696F6E206E6F7420707265706172656420796574000000000000 PUSH1 0x40 DUP3 ADD MSTORE PUSH1 0x60 ADD SWAP1 JUMP JUMPDEST PUSH4 0x4E487B71 PUSH1 0xE0 SHL PUSH0 MSTORE PUSH1 0x11 PUSH1 0x4 MSTORE PUSH1 0x24 PUSH0 REVERT JUMPDEST DUP2 DUP2 SUB DUP2 DUP2 GT ISZERO PUSH2 0x300 JUMPI PUSH2 0x300 PUSH2 0x2D48 JUMP JUMPDEST PUSH4 0x4E487B71 PUSH1 0xE0 SHL PUSH0 MSTORE PUSH1 0x32 PUSH1 0x4 MSTORE PUSH1 0x24 PUSH0 REVERT JUMPDEST PUSH1 0x20 DUP1 DUP3 MSTORE PUSH1 0x15 SWAP1 DUP3 ADD MSTORE PUSH21 0x19DBDD081A5B9D985B1A59081A5B99195E081CD95D PUSH1 0x5A SHL PUSH1 0x40 DUP3 ADD MSTORE PUSH1 0x60 ADD SWAP1 JUMP JUMPDEST DUP1 DUP3 ADD DUP1 DUP3 GT ISZERO PUSH2 0x300 JUMPI PUSH2 0x300 PUSH2 0x2D48 JUMP JUMPDEST PUSH4 0x4E487B71 PUSH1 0xE0 SHL PUSH0 MSTORE PUSH1 0x12 PUSH1 0x4 MSTORE PUSH1 0x24 PUSH0 REVERT JUMPDEST PUSH0 DUP3 PUSH2 0x2DE7 JUMPI PUSH2 0x2DE7 PUSH2 0x2DC5 JUMP JUMPDEST POP DIV SWAP1 JUMP JUMPDEST PUSH0 PUSH1 0x20 DUP3 DUP5 SUB SLT ISZERO PUSH2 0x2DFC JUMPI PUSH0 PUSH0 REVERT JUMPDEST DUP2 MLOAD PUSH2 0x797 DUP2 PUSH2 0x2C03 JUMP JUMPDEST DUP2 DUP4 MSTORE PUSH0 PUSH1 0x1 PUSH1 0x1 PUSH1 0xFB SHL SUB DUP4 GT ISZERO PUSH2 0x2E1E JUMPI PUSH0 PUSH0 REVERT JUMPDEST DUP3 PUSH1 0x5 SHL DUP1 DUP4 PUSH1 0x20 DUP8 ADD CALLDATACOPY SWAP4 SWAP1 SWAP4 ADD PUSH1 0x20 ADD SWAP4 SWAP3 POP POP POP JUMP JUMPDEST DUP5 DUP2 MSTORE PUSH1 0x60 PUSH1 0x20 DUP3 ADD MSTORE PUSH0 PUSH2 0x2E50 PUSH1 0x60 DUP4 ADD DUP6 DUP8 PUSH2 0x2E07 JUMP JUMPDEST SWAP1 POP DUP3 PUSH1 0x40 DUP4 ADD MSTORE SWAP6 SWAP5 POP POP POP POP POP JUMP JUMPDEST PUSH1 0x1 DUP2 DUP2 SHR SWAP1 DUP3 AND DUP1 PUSH2 0x2E75 JUMPI PUSH1 0x7F DUP3 AND SWAP2 POP JUMPDEST PUSH1 0x20 DUP3 LT DUP2 SUB PUSH2 0x2E93 JUMPI PUSH4 0x4E487B71 PUSH1 0xE0 SHL PUSH0 MSTORE PUSH1 0x22 PUSH1 0x4 MSTORE PUSH1 0x24 PUSH0 REVERT JUMPDEST POP SWAP2 SWAP1 POP JUMP JUMPDEST PUSH1 0x1 PUSH1 0x1 PUSH1 0xA0 SHL SUB DUP6 AND DUP2 MSTORE PUSH1 0x60 PUSH1 0x20 DUP3 ADD DUP2 SWAP1 MSTORE PUSH0 SWAP1 PUSH2 0x2E50 SWAP1 DUP4 ADD DUP6 DUP8 PUSH2 0x2E07 JUMP JUMPDEST PUSH1 0x20 DUP1 DUP3 MSTORE PUSH1 0x2A SWAP1 DUP3 ADD MSTORE PUSH32 0x74686572652073686F756C64206265206D6F7265207468616E206F6E65206F75 PUSH1 0x40 DUP3 ADD MSTORE PUSH10 0x1D18DBDB59481CDB1BDD PUSH1 0xB2 SHL PUSH1 0x60 DUP3 ADD MSTORE PUSH1 0x80 ADD SWAP1 JUMP JUMPDEST PUSH0 PUSH1 0x40 DUP3 ADD DUP5 DUP4 MSTORE PUSH1 0x40 PUSH1 0x20 DUP5 ADD MSTORE DUP1 DUP5 SLOAD DUP1 DUP4 MSTORE PUSH1 0x60 DUP6 ADD SWAP2 POP DUP6 PUSH0 MSTORE PUSH1 0x20 PUSH0 KECCAK256 SWAP3 POP PUSH0 JUMPDEST DUP2 DUP2 LT ISZERO PUSH2 0x2F4B JUMPI DUP4 SLOAD DUP4 MSTORE PUSH1 0x1 SWAP4 DUP5 ADD SWAP4 PUSH1 0x20 SWAP1 SWAP4 ADD SWAP3 ADD PUSH2 0x2F2D JUMP JUMPDEST POP SWAP1 SWAP7 SWAP6 POP POP POP POP POP POP JUMP JUMPDEST PUSH0 DUP3 PUSH2 0x2F65 JUMPI PUSH2 0x2F65 PUSH2 0x2DC5 JUMP JUMPDEST POP MOD SWAP1 JUMP JUMPDEST PUSH0 DUP3 MLOAD DUP1 PUSH1 0x20 DUP6 ADD DUP5 MCOPY PUSH0 SWAP3 ADD SWAP2 DUP3 MSTORE POP SWAP2 SWAP1 POP JUMP JUMPDEST PUSH0 PUSH0 PUSH1 0x40 DUP4 DUP6 SUB SLT ISZERO PUSH2 0x2F91 JUMPI PUSH0 PUSH0 REVERT JUMPDEST POP POP DUP1 MLOAD PUSH1 0x20 SWAP1 SWAP2 ADD MLOAD SWAP1 SWAP3 SWAP1 SWAP2 POP JUMP JUMPDEST PUSH1 0x40 DUP2 MSTORE PUSH0 PUSH2 0x2FB4 PUSH1 0x40 DUP4 ADD DUP6 PUSH2 0x2AF0 JUMP JUMPDEST DUP3 DUP2 SUB PUSH1 0x20 DUP5 ADD MSTORE PUSH2 0x2FC6 DUP2 DUP6 PUSH2 0x2AF0 JUMP JUMPDEST SWAP6 SWAP5 POP POP POP POP POP JUMP JUMPDEST PUSH1 0x1 PUSH1 0x1 PUSH1 0xA0 SHL SUB DUP7 DUP2 AND DUP3 MSTORE DUP6 AND PUSH1 0x20 DUP3 ADD MSTORE PUSH1 0x40 DUP2 ADD DUP5 SWAP1 MSTORE PUSH1 0x60 DUP2 ADD DUP4 SWAP1 MSTORE PUSH1 0xA0 PUSH1 0x80 DUP3 ADD DUP2 SWAP1 MSTORE PUSH0 SWAP1 PUSH2 0x3008 SWAP1 DUP4 ADD DUP5 PUSH2 0x2802 JUMP JUMPDEST SWAP8 SWAP7 POP POP POP POP POP POP POP JUMP JUMPDEST PUSH0 PUSH1 0x20 DUP3 DUP5 SUB SLT ISZERO PUSH2 0x3023 JUMPI PUSH0 PUSH0 REVERT JUMPDEST DUP2 MLOAD PUSH2 0x797 DUP2 PUSH2 0x279B JUMP JUMPDEST PUSH1 0x1 PUSH1 0x1 PUSH1 0xA0 SHL SUB DUP7 DUP2 AND DUP3 MSTORE DUP6 AND PUSH1 0x20 DUP3 ADD MSTORE PUSH1 0xA0 PUSH1 0x40 DUP3 ADD DUP2 SWAP1 MSTORE PUSH0 SWAP1 PUSH2 0x3059 SWAP1 DUP4 ADD DUP7 PUSH2 0x2AF0 JUMP JUMPDEST DUP3 DUP2 SUB PUSH1 0x60 DUP5 ADD MSTORE PUSH2 0x306B DUP2 DUP7 PUSH2 0x2AF0 JUMP JUMPDEST SWAP1 POP DUP3 DUP2 SUB PUSH1 0x80 DUP5 ADD MSTORE PUSH2 0x307F DUP2 DUP6 PUSH2 0x2802 JUMP JUMPDEST SWAP9 SWAP8 POP POP POP POP POP POP POP POP JUMP INVALID ADDRESS PUSH5 0x4E72E131A0 0x29 0xB8 POP GASLIMIT 0xB6 DUP2 DUP2 PC TSTORE SWAP8 DUP2 PUSH11 0x916871CA8D3C208C16D87C REVERT SELFBALANCE LOG2 PUSH5 0x6970667358 0x22 SLT KECCAK256 CALLER DUP1 0xE7 0xE8 0xD9 0xAC 0x1E 0xD0 0xAB 0xB2 PUSH18 0xC053C7BB735768CDA8C339635AA7401D1214 0xEE BALANCE MCOPY PUSH5 0x736F6C6343 STOP ADDMOD SHR STOP CALLER "
		},
		"gasEstimates": {
			"creation": {
				"codeDepositCost": "2502600",
				"executionCost": "infinite",
				"totalCost": "infinite"
			},
			"external": {
				"balanceOf(address,uint256)": "2650",
				"balanceOfBatch(address[],uint256[])": "infinite",
				"getCollectionId(bytes32,bytes32,uint256)": "infinite",
				"getConditionId(address,bytes32,uint256)": "665",
				"getOutcomeSlotCount(bytes32)": "2446",
				"getPositionId(address,bytes32)": "662",
				"isApprovedForAll(address,address)": "infinite",
				"mergePositions(address,bytes32,bytes32,uint256[],uint256)": "infinite",
				"payoutDenominator(bytes32)": "2490",
				"payoutNumerators(bytes32,uint256)": "4736",
				"prepareCondition(address,bytes32,uint256)": "infinite",
				"redeemPositions(address,bytes32,bytes32,uint256[])": "infinite",
				"reportPayouts(bytes32,uint256[])": "infinite",
				"safeBatchTransferFrom(address,address,uint256[],uint256[],bytes)": "infinite",
				"safeTransferFrom(address,address,uint256,uint256,bytes)": "infinite",
				"setApprovalForAll(address,bool)": "infinite",
				"splitPosition(address,bytes32,bytes32,uint256[],uint256)": "infinite",
				"supportsInterface(bytes4)": "597",
				"uri(uint256)": "infinite"
			}
		},
		"methodIdentifiers": {
			"balanceOf(address,uint256)": "00fdd58e",
			"balanceOfBatch(address[],uint256[])": "4e1273f4",
			"getCollectionId(bytes32,bytes32,uint256)": "856296f7",
			"getConditionId(address,bytes32,uint256)": "852c6ae2",
			"getOutcomeSlotCount(bytes32)": "d42dc0c2",
			"getPositionId(address,bytes32)": "39dd7530",
			"isApprovedForAll(address,address)": "e985e9c5",
			"mergePositions(address,bytes32,bytes32,uint256[],uint256)": "9e7212ad",
			"payoutDenominator(bytes32)": "dd34de67",
			"payoutNumerators(bytes32,uint256)": "0504c814",
			"prepareCondition(address,bytes32,uint256)": "d96ee754",
			"redeemPositions(address,bytes32,bytes32,uint256[])": "01b7037c",
			"reportPayouts(bytes32,uint256[])": "c49298ac",
			"safeBatchTransferFrom(address,address,uint256[],uint256[],bytes)": "2eb2c2d6",
			"safeTransferFrom(address,address,uint256,uint256,bytes)": "f242432a",
			"setApprovalForAll(address,bool)": "a22cb465",
			"splitPosition(address,bytes32,bytes32,uint256[],uint256)": "72ce4275",
			"supportsInterface(bytes4)": "01ffc9a7",
			"uri(uint256)": "0e89341c"
		}
	},
	"abi": [
		{
			"inputs": [],
			"stateMutability": "nonpayable",
			"type": "constructor"
		},
		{
			"inputs": [
				{
					"internalType": "address",
					"name": "sender",
					"type": "address"
				},
				{
					"internalType": "uint256",
					"name": "balance",
					"type": "uint256"
				},
				{
					"internalType": "uint256",
					"name": "needed",
					"type": "uint256"
				},
				{
					"internalType": "uint256",
					"name": "tokenId",
					"type": "uint256"
				}
			],
			"name": "ERC1155InsufficientBalance",
			"type": "error"
		},
		{
			"inputs": [
				{
					"internalType": "address",
					"name": "approver",
					"type": "address"
				}
			],
			"name": "ERC1155InvalidApprover",
			"type": "error"
		},
		{
			"inputs": [
				{
					"internalType": "uint256",
					"name": "idsLength",
					"type": "uint256"
				},
				{
					"internalType": "uint256",
					"name": "valuesLength",
					"type": "uint256"
				}
			],
			"name": "ERC1155InvalidArrayLength",
			"type": "error"
		},
		{
			"inputs": [
				{
					"internalType": "address",
					"name": "operator",
					"type": "address"
				}
			],
			"name": "ERC1155InvalidOperator",
			"type": "error"
		},
		{
			"inputs": [
				{
					"internalType": "address",
					"name": "receiver",
					"type": "address"
				}
			],
			"name": "ERC1155InvalidReceiver",
			"type": "error"
		},
		{
			"inputs": [
				{
					"internalType": "address",
					"name": "sender",
					"type": "address"
				}
			],
			"name": "ERC1155InvalidSender",
			"type": "error"
		},
		{
			"inputs": [
				{
					"internalType": "address",
					"name": "operator",
					"type": "address"
				},
				{
					"internalType": "address",
					"name": "owner",
					"type": "address"
				}
			],
			"name": "ERC1155MissingApprovalForAll",
			"type": "error"
		},
		{
			"anonymous": false,
			"inputs": [
				{
					"indexed": true,
					"internalType": "address",
					"name": "account",
					"type": "address"
				},
				{
					"indexed": true,
					"internalType": "address",
					"name": "operator",
					"type": "address"
				},
				{
					"indexed": false,
					"internalType": "bool",
					"name": "approved",
					"type": "bool"
				}
			],
			"name": "ApprovalForAll",
			"type": "event"
		},
		{
			"anonymous": false,
			"inputs": [
				{
					"indexed": true,
					"internalType": "bytes32",
					"name": "conditionId",
					"type": "bytes32"
				},
				{
					"indexed": true,
					"internalType": "address",
					"name": "oracle",
					"type": "address"
				},
				{
					"indexed": true,
					"internalType": "bytes32",
					"name": "questionId",
					"type": "bytes32"
				},
				{
					"indexed": false,
					"internalType": "uint256",
					"name": "outcomeSlotCount",
					"type": "uint256"
				}
			],
			"name": "ConditionPreparation",
			"type": "event"
		},
		{
			"anonymous": false,
			"inputs": [
				{
					"indexed": true,
					"internalType": "bytes32",
					"name": "conditionId",
					"type": "bytes32"
				},
				{
					"indexed": true,
					"internalType": "address",
					"name": "oracle",
					"type": "address"
				},
				{
					"indexed": true,
					"internalType": "bytes32",
					"name": "questionId",
					"type": "bytes32"
				},
				{
					"indexed": false,
					"internalType": "uint256",
					"name": "outcomeSlotCount",
					"type": "uint256"
				},
				{
					"indexed": false,
					"internalType": "uint256[]",
					"name": "payoutNumerators",
					"type": "uint256[]"
				}
			],
			"name": "ConditionResolution",
			"type": "event"
		},
		{
			"anonymous": false,
			"inputs": [
				{
					"indexed": true,
					"internalType": "address",
					"name": "redeemer",
					"type": "address"
				},
				{
					"indexed": true,
					"internalType": "contract IERC20",
					"name": "collateralToken",
					"type": "address"
				},
				{
					"indexed": true,
					"internalType": "bytes32",
					"name": "parentCollectionId",
					"type": "bytes32"
				},
				{
					"indexed": false,
					"internalType": "bytes32",
					"name": "conditionId",
					"type": "bytes32"
				},
				{
					"indexed": false,
					"internalType": "uint256[]",
					"name": "indexSets",
					"type": "uint256[]"
				},
				{
					"indexed": false,
					"internalType": "uint256",
					"name": "payout",
					"type": "uint256"
				}
			],
			"name": "PayoutRedemption",
			"type": "event"
		},
		{
			"anonymous": false,
			"inputs": [
				{
					"indexed": true,
					"internalType": "address",
					"name": "stakeholder",
					"type": "address"
				},
				{
					"indexed": false,
					"internalType": "contract IERC20",
					"name": "collateralToken",
					"type": "address"
				},
				{
					"indexed": true,
					"internalType": "bytes32",
					"name": "parentCollectionId",
					"type": "bytes32"
				},
				{
					"indexed": true,
					"internalType": "bytes32",
					"name": "conditionId",
					"type": "bytes32"
				},
				{
					"indexed": false,
					"internalType": "uint256[]",
					"name": "partition",
					"type": "uint256[]"
				},
				{
					"indexed": false,
					"internalType": "uint256",
					"name": "amount",
					"type": "uint256"
				}
			],
			"name": "PositionSplit",
			"type": "event"
		},
		{
			"anonymous": false,
			"inputs": [
				{
					"indexed": true,
					"internalType": "address",
					"name": "stakeholder",
					"type": "address"
				},
				{
					"indexed": false,
					"internalType": "contract IERC20",
					"name": "collateralToken",
					"type": "address"
				},
				{
					"indexed": true,
					"internalType": "bytes32",
					"name": "parentCollectionId",
					"type": "bytes32"
				},
				{
					"indexed": true,
					"internalType": "bytes32",
					"name": "conditionId",
					"type": "bytes32"
				},
				{
					"indexed": false,
					"internalType": "uint256[]",
					"name": "partition",
					"type": "uint256[]"
				},
				{
					"indexed": false,
					"internalType": "uint256",
					"name": "amount",
					"type": "uint256"
				}
			],
			"name": "PositionsMerge",
			"type": "event"
		},
		{
			"anonymous": false,
			"inputs": [
				{
					"indexed": true,
					"internalType": "address",
					"name": "operator",
					"type": "address"
				},
				{
					"indexed": true,
					"internalType": "address",
					"name": "from",
					"type": "address"
				},
				{
					"indexed": true,
					"internalType": "address",
					"name": "to",
					"type": "address"
				},
				{
					"indexed": false,
					"internalType": "uint256[]",
					"name": "ids",
					"type": "uint256[]"
				},
				{
					"indexed": false,
					"internalType": "uint256[]",
					"name": "values",
					"type": "uint256[]"
				}
			],
			"name": "TransferBatch",
			"type": "event"
		},
		{
			"anonymous": false,
			"inputs": [
				{
					"indexed": true,
					"internalType": "address",
					"name": "operator",
					"type": "address"
				},
				{
					"indexed": true,
					"internalType": "address",
					"name": "from",
					"type": "address"
				},
				{
					"indexed": true,
					"internalType": "address",
					"name": "to",
					"type": "address"
				},
				{
					"indexed": false,
					"internalType": "uint256",
					"name": "id",
					"type": "uint256"
				},
				{
					"indexed": false,
					"internalType": "uint256",
					"name": "value",
					"type": "uint256"
				}
			],
			"name": "TransferSingle",
			"type": "event"
		},
		{
			"anonymous": false,
			"inputs": [
				{
					"indexed": false,
					"internalType": "string",
					"name": "value",
					"type": "string"
				},
				{
					"indexed": true,
					"internalType": "uint256",
					"name": "id",
					"type": "uint256"
				}
			],
			"name": "URI",
			"type": "event"
		},
		{
			"inputs": [
				{
					"internalType": "address",
					"name": "account",
					"type": "address"
				},
				{
					"internalType": "uint256",
					"name": "id",
					"type": "uint256"
				}
			],
			"name": "balanceOf",
			"outputs": [
				{
					"internalType": "uint256",
					"name": "",
					"type": "uint256"
				}
			],
			"stateMutability": "view",
			"type": "function"
		},
		{
			"inputs": [
				{
					"internalType": "address[]",
					"name": "accounts",
					"type": "address[]"
				},
				{
					"internalType": "uint256[]",
					"name": "ids",
					"type": "uint256[]"
				}
			],
			"name": "balanceOfBatch",
			"outputs": [
				{
					"internalType": "uint256[]",
					"name": "",
					"type": "uint256[]"
				}
			],
			"stateMutability": "view",
			"type": "function"
		},
		{
			"inputs": [
				{
					"internalType": "bytes32",
					"name": "parentCollectionId",
					"type": "bytes32"
				},
				{
					"internalType": "bytes32",
					"name": "conditionId",
					"type": "bytes32"
				},
				{
					"internalType": "uint256",
					"name": "indexSet",
					"type": "uint256"
				}
			],
			"name": "getCollectionId",
			"outputs": [
				{
					"internalType": "bytes32",
					"name": "",
					"type": "bytes32"
				}
			],
			"stateMutability": "view",
			"type": "function"
		},
		{
			"inputs": [
				{
					"internalType": "address",
					"name": "oracle",
					"type": "address"
				},
				{
					"internalType": "bytes32",
					"name": "questionId",
					"type": "bytes32"
				},
				{
					"internalType": "uint256",
					"name": "outcomeSlotCount",
					"type": "uint256"
				}
			],
			"name": "getConditionId",
			"outputs": [
				{
					"internalType": "bytes32",
					"name": "",
					"type": "bytes32"
				}
			],
			"stateMutability": "pure",
			"type": "function"
		},
		{
			"inputs": [
				{
					"internalType": "bytes32",
					"name": "conditionId",
					"type": "bytes32"
				}
			],
			"name": "getOutcomeSlotCount",
			"outputs": [
				{
					"internalType": "uint256",
					"name": "",
					"type": "uint256"
				}
			],
			"stateMutability": "view",
			"type": "function"
		},
		{
			"inputs": [
				{
					"internalType": "contract IERC20",
					"name": "collateralToken",
					"type": "address"
				},
				{
					"internalType": "bytes32",
					"name": "collectionId",
					"type": "bytes32"
				}
			],
			"name": "getPositionId",
			"outputs": [
				{
					"internalType": "uint256",
					"name": "",
					"type": "uint256"
				}
			],
			"stateMutability": "pure",
			"type": "function"
		},
		{
			"inputs": [
				{
					"internalType": "address",
					"name": "account",
					"type": "address"
				},
				{
					"internalType": "address",
					"name": "operator",
					"type": "address"
				}
			],
			"name": "isApprovedForAll",
			"outputs": [
				{
					"internalType": "bool",
					"name": "",
					"type": "bool"
				}
			],
			"stateMutability": "view",
			"type": "function"
		},
		{
			"inputs": [
				{
					"internalType": "contract IERC20",
					"name": "collateralToken",
					"type": "address"
				},
				{
					"internalType": "bytes32",
					"name": "parentCollectionId",
					"type": "bytes32"
				},
				{
					"internalType": "bytes32",
					"name": "conditionId",
					"type": "bytes32"
				},
				{
					"internalType": "uint256[]",
					"name": "partition",
					"type": "uint256[]"
				},
				{
					"internalType": "uint256",
					"name": "amount",
					"type": "uint256"
				}
			],
			"name": "mergePositions",
			"outputs": [],
			"stateMutability": "nonpayable",
			"type": "function"
		},
		{
			"inputs": [
				{
					"internalType": "bytes32",
					"name": "",
					"type": "bytes32"
				}
			],
			"name": "payoutDenominator",
			"outputs": [
				{
					"internalType": "uint256",
					"name": "",
					"type": "uint256"
				}
			],
			"stateMutability": "view",
			"type": "function"
		},
		{
			"inputs": [
				{
					"internalType": "bytes32",
					"name": "",
					"type": "bytes32"
				},
				{
					"internalType": "uint256",
					"name": "",
					"type": "uint256"
				}
			],
			"name": "payoutNumerators",
			"outputs": [
				{
					"internalType": "uint256",
					"name": "",
					"type": "uint256"
				}
			],
			"stateMutability": "view",
			"type": "function"
		},
		{
			"inputs": [
				{
					"internalType": "address",
					"name": "oracle",
					"type": "address"
				},
				{
					"internalType": "bytes32",
					"name": "questionId",
					"type": "bytes32"
				},
				{
					"internalType": "uint256",
					"name": "outcomeSlotCount",
					"type": "uint256"
				}
			],
			"name": "prepareCondition",
			"outputs": [],
			"stateMutability": "nonpayable",
			"type": "function"
		},
		{
			"inputs": [
				{
					"internalType": "contract IERC20",
					"name": "collateralToken",
					"type": "address"
				},
				{
					"internalType": "bytes32",
					"name": "parentCollectionId",
					"type": "bytes32"
				},
				{
					"internalType": "bytes32",
					"name": "conditionId",
					"type": "bytes32"
				},
				{
					"internalType": "uint256[]",
					"name": "indexSets",
					"type": "uint256[]"
				}
			],
			"name": "redeemPositions",
			"outputs": [],
			"stateMutability": "nonpayable",
			"type": "function"
		},
		{
			"inputs": [
				{
					"internalType": "bytes32",
					"name": "questionId",
					"type": "bytes32"
				},
				{
					"internalType": "uint256[]",
					"name": "payouts",
					"type": "uint256[]"
				}
			],
			"name": "reportPayouts",
			"outputs": [],
			"stateMutability": "nonpayable",
			"type": "function"
		},
		{
			"inputs": [
				{
					"internalType": "address",
					"name": "from",
					"type": "address"
				},
				{
					"internalType": "address",
					"name": "to",
					"type": "address"
				},
				{
					"internalType": "uint256[]",
					"name": "ids",
					"type": "uint256[]"
				},
				{
					"internalType": "uint256[]",
					"name": "values",
					"type": "uint256[]"
				},
				{
					"internalType": "bytes",
					"name": "data",
					"type": "bytes"
				}
			],
			"name": "safeBatchTransferFrom",
			"outputs": [],
			"stateMutability": "nonpayable",
			"type": "function"
		},
		{
			"inputs": [
				{
					"internalType": "address",
					"name": "from",
					"type": "address"
				},
				{
					"internalType": "address",
					"name": "to",
					"type": "address"
				},
				{
					"internalType": "uint256",
					"name": "id",
					"type": "uint256"
				},
				{
					"internalType": "uint256",
					"name": "value",
					"type": "uint256"
				},
				{
					"internalType": "bytes",
					"name": "data",
					"type": "bytes"
				}
			],
			"name": "safeTransferFrom",
			"outputs": [],
			"stateMutability": "nonpayable",
			"type": "function"
		},
		{
			"inputs": [
				{
					"internalType": "address",
					"name": "operator",
					"type": "address"
				},
				{
					"internalType": "bool",
					"name": "approved",
					"type": "bool"
				}
			],
			"name": "setApprovalForAll",
			"outputs": [],
			"stateMutability": "nonpayable",
			"type": "function"
		},
		{
			"inputs": [
				{
					"internalType": "contract IERC20",
					"name": "collateralToken",
					"type": "address"
				},
				{
					"internalType": "bytes32",
					"name": "parentCollectionId",
					"type": "bytes32"
				},
				{
					"internalType": "bytes32",
					"name": "conditionId",
					"type": "bytes32"
				},
				{
					"internalType": "uint256[]",
					"name": "partition",
					"type": "uint256[]"
				},
				{
					"internalType": "uint256",
					"name": "amount",
					"type": "uint256"
				}
			],
			"name": "splitPosition",
			"outputs": [],
			"stateMutability": "nonpayable",
			"type": "function"
		},
		{
			"inputs": [
				{
					"internalType": "bytes4",
					"name": "interfaceId",
					"type": "bytes4"
				}
			],
			"name": "supportsInterface",
			"outputs": [
				{
					"internalType": "bool",
					"name": "",
					"type": "bool"
				}
			],
			"stateMutability": "view",
			"type": "function"
		},
		{
			"inputs": [
				{
					"internalType": "uint256",
					"name": "",
					"type": "uint256"
				}
			],
			"name": "uri",
			"outputs": [
				{
					"internalType": "string",
					"name": "",
					"type": "string"
				}
			],
			"stateMutability": "view",
			"type": "function"
		}
	]
}